{
  "contractName": "ERC1155Token",
  "abi": [
    {
      "anonymous": false,
      "inputs": [
        {
          "indexed": true,
          "internalType": "address",
          "name": "account",
          "type": "address"
        },
        {
          "indexed": true,
          "internalType": "address",
          "name": "operator",
          "type": "address"
        },
        {
          "indexed": false,
          "internalType": "bool",
          "name": "approved",
          "type": "bool"
        }
      ],
      "name": "ApprovalForAll",
      "type": "event"
    },
    {
      "anonymous": false,
      "inputs": [
        {
          "indexed": false,
          "internalType": "address",
          "name": "account",
          "type": "address"
        }
      ],
      "name": "Paused",
      "type": "event"
    },
    {
      "anonymous": false,
      "inputs": [
        {
          "indexed": true,
          "internalType": "bytes32",
          "name": "role",
          "type": "bytes32"
        },
        {
          "indexed": true,
          "internalType": "bytes32",
          "name": "previousAdminRole",
          "type": "bytes32"
        },
        {
          "indexed": true,
          "internalType": "bytes32",
          "name": "newAdminRole",
          "type": "bytes32"
        }
      ],
      "name": "RoleAdminChanged",
      "type": "event"
    },
    {
      "anonymous": false,
      "inputs": [
        {
          "indexed": true,
          "internalType": "bytes32",
          "name": "role",
          "type": "bytes32"
        },
        {
          "indexed": true,
          "internalType": "address",
          "name": "account",
          "type": "address"
        },
        {
          "indexed": true,
          "internalType": "address",
          "name": "sender",
          "type": "address"
        }
      ],
      "name": "RoleGranted",
      "type": "event"
    },
    {
      "anonymous": false,
      "inputs": [
        {
          "indexed": true,
          "internalType": "bytes32",
          "name": "role",
          "type": "bytes32"
        },
        {
          "indexed": true,
          "internalType": "address",
          "name": "account",
          "type": "address"
        },
        {
          "indexed": true,
          "internalType": "address",
          "name": "sender",
          "type": "address"
        }
      ],
      "name": "RoleRevoked",
      "type": "event"
    },
    {
      "anonymous": false,
      "inputs": [
        {
          "indexed": true,
          "internalType": "address",
          "name": "operator",
          "type": "address"
        },
        {
          "indexed": true,
          "internalType": "address",
          "name": "from",
          "type": "address"
        },
        {
          "indexed": true,
          "internalType": "address",
          "name": "to",
          "type": "address"
        },
        {
          "indexed": false,
          "internalType": "uint256[]",
          "name": "ids",
          "type": "uint256[]"
        },
        {
          "indexed": false,
          "internalType": "uint256[]",
          "name": "values",
          "type": "uint256[]"
        }
      ],
      "name": "TransferBatch",
      "type": "event"
    },
    {
      "anonymous": false,
      "inputs": [
        {
          "indexed": true,
          "internalType": "address",
          "name": "operator",
          "type": "address"
        },
        {
          "indexed": true,
          "internalType": "address",
          "name": "from",
          "type": "address"
        },
        {
          "indexed": true,
          "internalType": "address",
          "name": "to",
          "type": "address"
        },
        {
          "indexed": false,
          "internalType": "uint256",
          "name": "id",
          "type": "uint256"
        },
        {
          "indexed": false,
          "internalType": "uint256",
          "name": "value",
          "type": "uint256"
        }
      ],
      "name": "TransferSingle",
      "type": "event"
    },
    {
      "anonymous": false,
      "inputs": [
        {
          "indexed": false,
          "internalType": "string",
          "name": "value",
          "type": "string"
        },
        {
          "indexed": true,
          "internalType": "uint256",
          "name": "id",
          "type": "uint256"
        }
      ],
      "name": "URI",
      "type": "event"
    },
    {
      "anonymous": false,
      "inputs": [
        {
          "indexed": false,
          "internalType": "address",
          "name": "account",
          "type": "address"
        }
      ],
      "name": "Unpaused",
      "type": "event"
    },
    {
      "inputs": [],
      "name": "DEFAULT_ADMIN_ROLE",
      "outputs": [
        {
          "internalType": "bytes32",
          "name": "",
          "type": "bytes32"
        }
      ],
      "stateMutability": "view",
      "type": "function"
    },
    {
      "inputs": [],
      "name": "MINTER_ROLE",
      "outputs": [
        {
          "internalType": "bytes32",
          "name": "",
          "type": "bytes32"
        }
      ],
      "stateMutability": "view",
      "type": "function"
    },
    {
      "inputs": [
        {
          "internalType": "address",
          "name": "account",
          "type": "address"
        },
        {
          "internalType": "uint256",
          "name": "id",
          "type": "uint256"
        }
      ],
      "name": "balanceOf",
      "outputs": [
        {
          "internalType": "uint256",
          "name": "",
          "type": "uint256"
        }
      ],
      "stateMutability": "view",
      "type": "function"
    },
    {
      "inputs": [
        {
          "internalType": "address[]",
          "name": "accounts",
          "type": "address[]"
        },
        {
          "internalType": "uint256[]",
          "name": "ids",
          "type": "uint256[]"
        }
      ],
      "name": "balanceOfBatch",
      "outputs": [
        {
          "internalType": "uint256[]",
          "name": "",
          "type": "uint256[]"
        }
      ],
      "stateMutability": "view",
      "type": "function"
    },
    {
      "inputs": [
        {
          "internalType": "address",
          "name": "account",
          "type": "address"
        },
        {
          "internalType": "uint256",
          "name": "id",
          "type": "uint256"
        },
        {
          "internalType": "uint256",
          "name": "value",
          "type": "uint256"
        }
      ],
      "name": "burn",
      "outputs": [],
      "stateMutability": "nonpayable",
      "type": "function"
    },
    {
      "inputs": [
        {
          "internalType": "address",
          "name": "account",
          "type": "address"
        },
        {
          "internalType": "uint256[]",
          "name": "ids",
          "type": "uint256[]"
        },
        {
          "internalType": "uint256[]",
          "name": "values",
          "type": "uint256[]"
        }
      ],
      "name": "burnBatch",
      "outputs": [],
      "stateMutability": "nonpayable",
      "type": "function"
    },
    {
      "inputs": [
        {
          "internalType": "bytes32",
          "name": "role",
          "type": "bytes32"
        }
      ],
      "name": "getRoleAdmin",
      "outputs": [
        {
          "internalType": "bytes32",
          "name": "",
          "type": "bytes32"
        }
      ],
      "stateMutability": "view",
      "type": "function"
    },
    {
      "inputs": [
        {
          "internalType": "bytes32",
          "name": "role",
          "type": "bytes32"
        },
        {
          "internalType": "uint256",
          "name": "index",
          "type": "uint256"
        }
      ],
      "name": "getRoleMember",
      "outputs": [
        {
          "internalType": "address",
          "name": "",
          "type": "address"
        }
      ],
      "stateMutability": "view",
      "type": "function"
    },
    {
      "inputs": [
        {
          "internalType": "bytes32",
          "name": "role",
          "type": "bytes32"
        }
      ],
      "name": "getRoleMemberCount",
      "outputs": [
        {
          "internalType": "uint256",
          "name": "",
          "type": "uint256"
        }
      ],
      "stateMutability": "view",
      "type": "function"
    },
    {
      "inputs": [
        {
          "internalType": "bytes32",
          "name": "role",
          "type": "bytes32"
        },
        {
          "internalType": "address",
          "name": "account",
          "type": "address"
        }
      ],
      "name": "grantRole",
      "outputs": [],
      "stateMutability": "nonpayable",
      "type": "function"
    },
    {
      "inputs": [
        {
          "internalType": "bytes32",
          "name": "role",
          "type": "bytes32"
        },
        {
          "internalType": "address",
          "name": "account",
          "type": "address"
        }
      ],
      "name": "hasRole",
      "outputs": [
        {
          "internalType": "bool",
          "name": "",
          "type": "bool"
        }
      ],
      "stateMutability": "view",
      "type": "function"
    },
    {
      "inputs": [
        {
          "internalType": "address",
          "name": "account",
          "type": "address"
        },
        {
          "internalType": "address",
          "name": "operator",
          "type": "address"
        }
      ],
      "name": "isApprovedForAll",
      "outputs": [
        {
          "internalType": "bool",
          "name": "",
          "type": "bool"
        }
      ],
      "stateMutability": "view",
      "type": "function"
    },
    {
      "inputs": [],
      "name": "paused",
      "outputs": [
        {
          "internalType": "bool",
          "name": "",
          "type": "bool"
        }
      ],
      "stateMutability": "view",
      "type": "function"
    },
    {
      "inputs": [
        {
          "internalType": "bytes32",
          "name": "role",
          "type": "bytes32"
        },
        {
          "internalType": "address",
          "name": "account",
          "type": "address"
        }
      ],
      "name": "renounceRole",
      "outputs": [],
      "stateMutability": "nonpayable",
      "type": "function"
    },
    {
      "inputs": [
        {
          "internalType": "bytes32",
          "name": "role",
          "type": "bytes32"
        },
        {
          "internalType": "address",
          "name": "account",
          "type": "address"
        }
      ],
      "name": "revokeRole",
      "outputs": [],
      "stateMutability": "nonpayable",
      "type": "function"
    },
    {
      "inputs": [
        {
          "internalType": "address",
          "name": "from",
          "type": "address"
        },
        {
          "internalType": "address",
          "name": "to",
          "type": "address"
        },
        {
          "internalType": "uint256[]",
          "name": "ids",
          "type": "uint256[]"
        },
        {
          "internalType": "uint256[]",
          "name": "amounts",
          "type": "uint256[]"
        },
        {
          "internalType": "bytes",
          "name": "data",
          "type": "bytes"
        }
      ],
      "name": "safeBatchTransferFrom",
      "outputs": [],
      "stateMutability": "nonpayable",
      "type": "function"
    },
    {
      "inputs": [
        {
          "internalType": "address",
          "name": "from",
          "type": "address"
        },
        {
          "internalType": "address",
          "name": "to",
          "type": "address"
        },
        {
          "internalType": "uint256",
          "name": "id",
          "type": "uint256"
        },
        {
          "internalType": "uint256",
          "name": "amount",
          "type": "uint256"
        },
        {
          "internalType": "bytes",
          "name": "data",
          "type": "bytes"
        }
      ],
      "name": "safeTransferFrom",
      "outputs": [],
      "stateMutability": "nonpayable",
      "type": "function"
    },
    {
      "inputs": [
        {
          "internalType": "address",
          "name": "operator",
          "type": "address"
        },
        {
          "internalType": "bool",
          "name": "approved",
          "type": "bool"
        }
      ],
      "name": "setApprovalForAll",
      "outputs": [],
      "stateMutability": "nonpayable",
      "type": "function"
    },
    {
      "inputs": [
        {
          "internalType": "uint256",
          "name": "",
          "type": "uint256"
        }
      ],
      "name": "uri",
      "outputs": [
        {
          "internalType": "string",
          "name": "",
          "type": "string"
        }
      ],
      "stateMutability": "view",
      "type": "function"
    },
    {
      "inputs": [],
      "name": "pause",
      "outputs": [],
      "stateMutability": "nonpayable",
      "type": "function"
    },
    {
      "inputs": [],
      "name": "unpause",
      "outputs": [],
      "stateMutability": "nonpayable",
      "type": "function"
    },
    {
      "inputs": [
        {
          "internalType": "bytes4",
          "name": "interfaceId",
          "type": "bytes4"
        }
      ],
      "name": "supportsInterface",
      "outputs": [
        {
          "internalType": "bool",
          "name": "",
          "type": "bool"
        }
      ],
      "stateMutability": "view",
      "type": "function"
    }
  ],
  "bytecode": "0x608060405234801561001057600080fd5b50612986806100206000396000f3fe608060405234801561001057600080fd5b50600436106101815760003560e01c80638456cb59116100d8578063ca15c8731161008c578063e985e9c511610066578063e985e9c514610304578063f242432a14610317578063f5298aca1461032a57610181565b8063ca15c873146102d6578063d5391393146102e9578063d547741f146102f157610181565b806391d14854116100bd57806391d14854146102a8578063a217fddf146102bb578063a22cb465146102c357610181565b80638456cb59146102805780639010d07c1461028857610181565b80632f2ff15d1161013a5780634e1273f4116101145780634e1273f4146102455780635c975abb146102655780636b20c4541461026d57610181565b80632f2ff15d1461021757806336568abe1461022a5780633f4ba83a1461023d57610181565b80630e89341c1161016b5780630e89341c146101cf578063248a9ca3146101ef5780632eb2c2d61461020257610181565b8062fdd58e1461018657806301ffc9a7146101af575b600080fd5b610199610194366004611cd8565b61033d565b6040516101a6919061206c565b60405180910390f35b6101c26101bd366004611e4c565b610399565b6040516101a69190612061565b6101e26101dd366004611df1565b6103ac565b6040516101a69190612075565b6101996101fd366004611df1565b610440565b610215610210366004611b24565b610455565b005b610215610225366004611e09565b6104b3565b610215610238366004611e09565b6104da565b6102156104fc565b610258610253366004611d33565b61052f565b6040516101a69190612020565b6101c261064f565b61021561027b366004611c2d565b61065a565b6102156106af565b61029b610296366004611e2b565b6106e0565b6040516101a69190611f6b565b6101c26102b6366004611e09565b6106ff565b61019961072a565b6102156102d1366004611c9e565b61072f565b6101996102e4366004611df1565b6107fd565b610199610814565b6102156102ff366004611e09565b610838565b6101c2610312366004611af2565b610842565b610215610325366004611bca565b610870565b610215610338366004611d01565b6108c7565b60006001600160a01b03831661036e5760405162461bcd60e51b8152600401610365906121ae565b60405180910390fd5b50600081815260c9602090815260408083206001600160a01b03861684529091529020545b92915050565b60006103a48261091c565b90505b919050565b606060cb80546103bb906127ec565b80601f01602080910402602001604051908101604052809291908181526020018280546103e7906127ec565b80156104345780601f1061040957610100808354040283529160200191610434565b820191906000526020600020905b81548152906001019060200180831161041757829003601f168201915b50505050509050919050565b60009081526065602052604090206001015490565b61045d61098e565b6001600160a01b0316856001600160a01b0316148061048357506104838561031261098e565b61049f5760405162461bcd60e51b8152600401610365906123b6565b6104ac8585858585610992565b5050505050565b6104bd8282610b66565b60008281526097602052604090206104d59082610b8a565b505050565b6104e48282610b9f565b60008281526097602052604090206104d59082610be5565b61050960006102b661098e565b6105255760405162461bcd60e51b815260040161036590612641565b61052d610bfa565b565b606081518351146105525760405162461bcd60e51b815260040161036590612587565b6000835167ffffffffffffffff81111561057c57634e487b7160e01b600052604160045260246000fd5b6040519080825280602002602001820160405280156105a5578160200160208202803683370190505b50905060005b84518110156106475761060c8582815181106105d757634e487b7160e01b600052603260045260246000fd5b60200260200101518583815181106105ff57634e487b7160e01b600052603260045260246000fd5b602002602001015161033d565b82828151811061062c57634e487b7160e01b600052603260045260246000fd5b602090810291909101015261064081612827565b90506105ab565b509392505050565b61012d5460ff165b90565b61066261098e565b6001600160a01b0316836001600160a01b0316148061068857506106888361031261098e565b6106a45760405162461bcd60e51b8152600401610365906122c5565b6104d5838383610c69565b6106bc60006102b661098e565b6106d85760405162461bcd60e51b8152600401610365906124cd565b61052d610e1d565b60008281526097602052604081206106f89083610e79565b9392505050565b60009182526065602090815260408084206001600160a01b0393909316845291905290205460ff1690565b600081565b816001600160a01b031661074161098e565b6001600160a01b031614156107685760405162461bcd60e51b81526004016103659061252a565b8060ca600061077561098e565b6001600160a01b03908116825260208083019390935260409182016000908120918716808252919093529120805460ff1916921515929092179091556107b961098e565b6001600160a01b03167f17307eab39ab6107e8899845ad3d59bd9653f200f220920489ca2b5937696c31836040516107f19190612061565b60405180910390a35050565b60008181526097602052604081206103a490610e85565b7f9f2df0fed2c77648de5860a4cc508cd0818c85b8b8a1ab4ceeef8d981c8956a681565b6104e48282610e90565b6001600160a01b03918216600090815260ca6020908152604080832093909416825291909152205460ff1690565b61087861098e565b6001600160a01b0316856001600160a01b0316148061089e575061089e8561031261098e565b6108ba5760405162461bcd60e51b8152600401610365906122c5565b6104ac8585858585610eaf565b6108cf61098e565b6001600160a01b0316836001600160a01b031614806108f557506108f58361031261098e565b6109115760405162461bcd60e51b8152600401610365906122c5565b6104d5838383610ff6565b60006001600160e01b031982167fd9b67a2600000000000000000000000000000000000000000000000000000000148061097f57506001600160e01b031982167f0e89341c00000000000000000000000000000000000000000000000000000000145b806103a457506103a482611109565b3390565b81518351146109b35760405162461bcd60e51b8152600401610365906125e4565b6001600160a01b0384166109d95760405162461bcd60e51b815260040161036590612359565b60006109e361098e565b90506109f3818787878787611147565b60005b8451811015610af8576000858281518110610a2157634e487b7160e01b600052603260045260246000fd5b602002602001015190506000858381518110610a4d57634e487b7160e01b600052603260045260246000fd5b602090810291909101810151600084815260c9835260408082206001600160a01b038e168352909352919091205490915081811015610a9e5760405162461bcd60e51b815260040161036590612470565b600083815260c9602090815260408083206001600160a01b038e8116855292528083208585039055908b16825281208054849290610add908490612757565b9250508190555050505080610af190612827565b90506109f6565b50846001600160a01b0316866001600160a01b0316826001600160a01b03167f4a39dc06d4c0dbc64b70af90fd698a233a518aa5d07e595d983b8c0526c8f7fb8787604051610b48929190612033565b60405180910390a4610b5e818787878787611155565b505050505050565b610b6f82610440565b610b8081610b7b61098e565b611295565b6104d583836112f9565b60006106f8836001600160a01b038416611380565b610ba761098e565b6001600160a01b0316816001600160a01b031614610bd75760405162461bcd60e51b81526004016103659061269e565b610be182826113ca565b5050565b60006106f8836001600160a01b03841661144f565b610c0261064f565b610c1e5760405162461bcd60e51b815260040161036590612177565b61012d805460ff191690557f5db9ee0a495bf2e6ff9c91a7834c1ba4fdd244a5e8aa4e537bd38aeae4b073aa610c5261098e565b604051610c5f9190611f6b565b60405180910390a1565b6001600160a01b038316610c8f5760405162461bcd60e51b815260040161036590612413565b8051825114610cb05760405162461bcd60e51b8152600401610365906125e4565b6000610cba61098e565b9050610cda81856000868660405180602001604052806000815250611147565b60005b8351811015610dbe576000848281518110610d0857634e487b7160e01b600052603260045260246000fd5b602002602001015190506000848381518110610d3457634e487b7160e01b600052603260045260246000fd5b602090810291909101810151600084815260c9835260408082206001600160a01b038c168352909352919091205490915081811015610d855760405162461bcd60e51b81526004016103659061220b565b600092835260c9602090815260408085206001600160a01b038b1686529091529092209103905580610db681612827565b915050610cdd565b5060006001600160a01b0316846001600160a01b0316826001600160a01b03167f4a39dc06d4c0dbc64b70af90fd698a233a518aa5d07e595d983b8c0526c8f7fb8686604051610e0f929190612033565b60405180910390a450505050565b610e2561064f565b15610e425760405162461bcd60e51b815260040161036590612322565b61012d805460ff191660011790557f62e78cea01bee320cd4e420270b5ea74000d11b0c9f74754ebdbfc544b05a258610c5261098e565b60006106f8838361156c565b60006103a4826115a4565b610e9982610440565b610ea581610b7b61098e565b6104d583836113ca565b6001600160a01b038416610ed55760405162461bcd60e51b815260040161036590612359565b6000610edf61098e565b9050610eff818787610ef0886115a8565b610ef9886115a8565b87611147565b600084815260c9602090815260408083206001600160a01b038a16845290915290205483811015610f425760405162461bcd60e51b815260040161036590612470565b600085815260c9602090815260408083206001600160a01b038b8116855292528083208785039055908816825281208054869290610f81908490612757565b92505081905550856001600160a01b0316876001600160a01b0316836001600160a01b03167fc3d58168c5ae7397731d063d5bbf3d657854427343f4c083240f7aacaa2d0f628888604051610fd79291906126fb565b60405180910390a4610fed828888888888611601565b50505050505050565b6001600160a01b03831661101c5760405162461bcd60e51b815260040161036590612413565b600061102661098e565b905061105681856000611038876115a8565b611041876115a8565b60405180602001604052806000815250611147565b600083815260c9602090815260408083206001600160a01b0388168452909152902054828110156110995760405162461bcd60e51b81526004016103659061220b565b600084815260c9602090815260408083206001600160a01b03808a16808652919093528184208786039055905190918516907fc3d58168c5ae7397731d063d5bbf3d657854427343f4c083240f7aacaa2d0f62906110fa90899089906126fb565b60405180910390a45050505050565b60006001600160e01b031982167f5a05180f0000000000000000000000000000000000000000000000000000000014806103a457506103a482611704565b610b5e868686868686611742565b611167846001600160a01b0316611775565b15610b5e576040517fbc197c810000000000000000000000000000000000000000000000000000000081526001600160a01b0385169063bc197c81906111b99089908990889088908890600401611f7f565b602060405180830381600087803b1580156111d357600080fd5b505af1925050508015611203575060408051601f3d908101601f1916820190925261120091810190611e68565b60015b61124c5761120f612874565b8061121a5750611234565b8060405162461bcd60e51b81526004016103659190612075565b60405162461bcd60e51b815260040161036590612088565b6001600160e01b031981167fbc197c810000000000000000000000000000000000000000000000000000000014610fed5760405162461bcd60e51b81526004016103659061211a565b61129f82826106ff565b610be1576112b7816001600160a01b0316601461177b565b6112c283602061177b565b6040516020016112d3929190611eea565b60408051601f198184030181529082905262461bcd60e51b825261036591600401612075565b61130382826106ff565b610be15760008281526065602090815260408083206001600160a01b03851684529091529020805460ff1916600117905561133c61098e565b6001600160a01b0316816001600160a01b0316837f2f8788117e7eff1d82e926ec794901d17c78024a50270940304540a733656f0d60405160405180910390a45050565b600061138c83836119ba565b6113c257508154600181810184556000848152602080822090930184905584548482528286019093526040902091909155610393565b506000610393565b6113d482826106ff565b15610be15760008281526065602090815260408083206001600160a01b03851684529091529020805460ff1916905561140b61098e565b6001600160a01b0316816001600160a01b0316837ff6391f5c32d9c69d2a47ea670b442974b53935d1edc7fd64eb21e047a839171b60405160405180910390a45050565b6000818152600183016020526040812054801561156257600061147360018361278e565b85549091506000906114879060019061278e565b90508181146115085760008660000182815481106114b557634e487b7160e01b600052603260045260246000fd5b90600052602060002001549050808760000184815481106114e657634e487b7160e01b600052603260045260246000fd5b6000918252602080832090910192909255918252600188019052604090208390555b855486908061152757634e487b7160e01b600052603160045260246000fd5b600190038181906000526020600020016000905590558560010160008681526020019081526020016000206000905560019350505050610393565b6000915050610393565b600082600001828154811061159157634e487b7160e01b600052603260045260246000fd5b9060005260206000200154905092915050565b5490565b604080516001808252818301909252606091600091906020808301908036833701905050905082816000815181106115f057634e487b7160e01b600052603260045260246000fd5b602090810291909101015292915050565b611613846001600160a01b0316611775565b15610b5e576040517ff23a6e610000000000000000000000000000000000000000000000000000000081526001600160a01b0385169063f23a6e61906116659089908990889088908890600401611fdd565b602060405180830381600087803b15801561167f57600080fd5b505af19250505080156116af575060408051601f3d908101601f191682019092526116ac91810190611e68565b60015b6116bb5761120f612874565b6001600160e01b031981167ff23a6e610000000000000000000000000000000000000000000000000000000014610fed5760405162461bcd60e51b81526004016103659061211a565b60006001600160e01b031982167f7965db0b0000000000000000000000000000000000000000000000000000000014806103a457506103a4826119d2565b611750868686868686610b5e565b61175861064f565b15610b5e5760405162461bcd60e51b815260040161036590612268565b3b151590565b6060600061178a83600261276f565b611795906002612757565b67ffffffffffffffff8111156117bb57634e487b7160e01b600052604160045260246000fd5b6040519080825280601f01601f1916602001820160405280156117e5576020820181803683370190505b5090507f30000000000000000000000000000000000000000000000000000000000000008160008151811061182a57634e487b7160e01b600052603260045260246000fd5b60200101907effffffffffffffffffffffffffffffffffffffffffffffffffffffffffffff1916908160001a9053507f78000000000000000000000000000000000000000000000000000000000000008160018151811061189b57634e487b7160e01b600052603260045260246000fd5b60200101907effffffffffffffffffffffffffffffffffffffffffffffffffffffffffffff1916908160001a90535060006118d784600261276f565b6118e2906001612757565b90505b600181111561199b577f303132333435363738396162636465660000000000000000000000000000000085600f166010811061193157634e487b7160e01b600052603260045260246000fd5b1a60f81b82828151811061195557634e487b7160e01b600052603260045260246000fd5b60200101907effffffffffffffffffffffffffffffffffffffffffffffffffffffffffffff1916908160001a90535060049490941c93611994816127d5565b90506118e5565b5083156106f85760405162461bcd60e51b8152600401610365906120e5565b60009081526001919091016020526040902054151590565b6001600160e01b031981167f01ffc9a70000000000000000000000000000000000000000000000000000000014919050565b80356001600160a01b03811681146103a757600080fd5b600082601f830112611a2b578081fd5b81356020611a40611a3b83612733565b612709565b8281528181019085830183850287018401881015611a5c578586fd5b855b85811015611a7a57813584529284019290840190600101611a5e565b5090979650505050505050565b600082601f830112611a97578081fd5b813567ffffffffffffffff811115611ab157611ab1612858565b611ac46020601f19601f84011601612709565b818152846020838601011115611ad8578283fd5b816020850160208301379081016020019190915292915050565b60008060408385031215611b04578182fd5b611b0d83611a04565b9150611b1b60208401611a04565b90509250929050565b600080600080600060a08688031215611b3b578081fd5b611b4486611a04565b9450611b5260208701611a04565b9350604086013567ffffffffffffffff80821115611b6e578283fd5b611b7a89838a01611a1b565b94506060880135915080821115611b8f578283fd5b611b9b89838a01611a1b565b93506080880135915080821115611bb0578283fd5b50611bbd88828901611a87565b9150509295509295909350565b600080600080600060a08688031215611be1578081fd5b611bea86611a04565b9450611bf860208701611a04565b93506040860135925060608601359150608086013567ffffffffffffffff811115611c21578182fd5b611bbd88828901611a87565b600080600060608486031215611c41578283fd5b611c4a84611a04565b9250602084013567ffffffffffffffff80821115611c66578384fd5b611c7287838801611a1b565b93506040860135915080821115611c87578283fd5b50611c9486828701611a1b565b9150509250925092565b60008060408385031215611cb0578182fd5b611cb983611a04565b915060208301358015158114611ccd578182fd5b809150509250929050565b60008060408385031215611cea578182fd5b611cf383611a04565b946020939093013593505050565b600080600060608486031215611d15578283fd5b611d1e84611a04565b95602085013595506040909401359392505050565b60008060408385031215611d45578182fd5b823567ffffffffffffffff80821115611d5c578384fd5b818501915085601f830112611d6f578384fd5b81356020611d7f611a3b83612733565b82815281810190858301838502870184018b1015611d9b578889fd5b8896505b84871015611dc457611db081611a04565b835260019690960195918301918301611d9f565b5096505086013592505080821115611dda578283fd5b50611de785828601611a1b565b9150509250929050565b600060208284031215611e02578081fd5b5035919050565b60008060408385031215611e1b578182fd5b82359150611b1b60208401611a04565b60008060408385031215611e3d578182fd5b50508035926020909101359150565b600060208284031215611e5d578081fd5b81356106f881612937565b600060208284031215611e79578081fd5b81516106f881612937565b6000815180845260208085019450808401835b83811015611eb357815187529582019590820190600101611e97565b509495945050505050565b60008151808452611ed68160208601602086016127a5565b601f01601f19169290920160200192915050565b60007f416363657373436f6e74726f6c3a206163636f756e742000000000000000000082528351611f228160178501602088016127a5565b7f206973206d697373696e6720726f6c65200000000000000000000000000000006017918401918201528351611f5f8160288401602088016127a5565b01602801949350505050565b6001600160a01b0391909116815260200190565b60006001600160a01b03808816835280871660208401525060a06040830152611fab60a0830186611e84565b8281036060840152611fbd8186611e84565b90508281036080840152611fd18185611ebe565b98975050505050505050565b60006001600160a01b03808816835280871660208401525084604083015283606083015260a0608083015261201560a0830184611ebe565b979650505050505050565b6000602082526106f86020830184611e84565b6000604082526120466040830185611e84565b82810360208401526120588185611e84565b95945050505050565b901515815260200190565b90815260200190565b6000602082526106f86020830184611ebe565b60208082526034908201527f455243313135353a207472616e7366657220746f206e6f6e204552433131353560408201527f526563656976657220696d706c656d656e746572000000000000000000000000606082015260800190565b6020808252818101527f537472696e67733a20686578206c656e67746820696e73756666696369656e74604082015260600190565b60208082526028908201527f455243313135353a204552433131353552656365697665722072656a6563746560408201527f6420746f6b656e73000000000000000000000000000000000000000000000000606082015260800190565b60208082526014908201527f5061757361626c653a206e6f7420706175736564000000000000000000000000604082015260600190565b6020808252602b908201527f455243313135353a2062616c616e636520717565727920666f7220746865207a60408201527f65726f2061646472657373000000000000000000000000000000000000000000606082015260800190565b60208082526024908201527f455243313135353a206275726e20616d6f756e7420657863656564732062616c60408201527f616e636500000000000000000000000000000000000000000000000000000000606082015260800190565b6020808252602c908201527f455243313135355061757361626c653a20746f6b656e207472616e736665722060408201527f7768696c65207061757365640000000000000000000000000000000000000000606082015260800190565b60208082526029908201527f455243313135353a2063616c6c6572206973206e6f74206f776e6572206e6f7260408201527f20617070726f7665640000000000000000000000000000000000000000000000606082015260800190565b60208082526010908201527f5061757361626c653a2070617573656400000000000000000000000000000000604082015260600190565b60208082526025908201527f455243313135353a207472616e7366657220746f20746865207a65726f20616460408201527f6472657373000000000000000000000000000000000000000000000000000000606082015260800190565b60208082526032908201527f455243313135353a207472616e736665722063616c6c6572206973206e6f742060408201527f6f776e6572206e6f7220617070726f7665640000000000000000000000000000606082015260800190565b60208082526023908201527f455243313135353a206275726e2066726f6d20746865207a65726f206164647260408201527f6573730000000000000000000000000000000000000000000000000000000000606082015260800190565b6020808252602a908201527f455243313135353a20696e73756666696369656e742062616c616e636520666f60408201527f72207472616e7366657200000000000000000000000000000000000000000000606082015260800190565b6020808252602b908201527f45524331313535546f6b656e3a206d75737420686176652061646d696e20726f60408201527f6c6520746f207061757365000000000000000000000000000000000000000000606082015260800190565b60208082526029908201527f455243313135353a2073657474696e6720617070726f76616c2073746174757360408201527f20666f722073656c660000000000000000000000000000000000000000000000606082015260800190565b60208082526029908201527f455243313135353a206163636f756e747320616e6420696473206c656e67746860408201527f206d69736d617463680000000000000000000000000000000000000000000000606082015260800190565b60208082526028908201527f455243313135353a2069647320616e6420616d6f756e7473206c656e6774682060408201527f6d69736d61746368000000000000000000000000000000000000000000000000606082015260800190565b6020808252602d908201527f45524331313535546f6b656e3a206d75737420686176652061646d696e20726f60408201527f6c6520746f20756e706175736500000000000000000000000000000000000000606082015260800190565b6020808252602f908201527f416363657373436f6e74726f6c3a2063616e206f6e6c792072656e6f756e636560408201527f20726f6c657320666f722073656c660000000000000000000000000000000000606082015260800190565b918252602082015260400190565b60405181810167ffffffffffffffff8111828210171561272b5761272b612858565b604052919050565b600067ffffffffffffffff82111561274d5761274d612858565b5060209081020190565b6000821982111561276a5761276a612842565b500190565b600081600019048311821515161561278957612789612842565b500290565b6000828210156127a0576127a0612842565b500390565b60005b838110156127c05781810151838201526020016127a8565b838111156127cf576000848401525b50505050565b6000816127e4576127e4612842565b506000190190565b60028104600182168061280057607f821691505b6020821081141561282157634e487b7160e01b600052602260045260246000fd5b50919050565b600060001982141561283b5761283b612842565b5060010190565b634e487b7160e01b600052601160045260246000fd5b634e487b7160e01b600052604160045260246000fd5b60e01c90565b600060443d101561288457610657565b600481823e6308c379a0612898825161286e565b146128a257610657565b6040517ffffffffffffffffffffffffffffffffffffffffffffffffffffffffffffffffc3d016004823e80513d67ffffffffffffffff81602484011181841117156128f05750505050610657565b8284019250825191508082111561290a5750505050610657565b503d8301602082840101111561292257505050610657565b601f01601f1916810160200160405291505090565b6001600160e01b03198116811461294d57600080fd5b5056fea2646970667358221220661e7507f0d5bc7c19539398db75404b5a4b29f3cc25328fc22d8d9587639ba264736f6c63430008000033",
  "immutableReferences": {},
  "source": "// SPDX-License-Identifier: MIT\npragma solidity ^0.8.0;\n\nimport \"../node_modules/@openzeppelin/contracts-upgradeable/token/ERC1155/ERC1155Upgradeable.sol\";\nimport \"../node_modules/@openzeppelin/contracts-upgradeable/token/ERC1155/extensions/ERC1155PausableUpgradeable.sol\";\nimport \"../node_modules/@openzeppelin/contracts-upgradeable/token/ERC1155/extensions/ERC1155BurnableUpgradeable.sol\";\nimport \"../node_modules/@openzeppelin/contracts-upgradeable/access/AccessControlEnumerableUpgradeable.sol\";\nimport \"../node_modules/@openzeppelin/contracts-upgradeable/utils/ContextUpgradeable.sol\";\nimport \"../node_modules/@openzeppelin/contracts-upgradeable/proxy/utils/Initializable.sol\";\n\ncontract ERC1155Token is Initializable, ContextUpgradeable, AccessControlEnumerableUpgradeable, ERC1155BurnableUpgradeable, ERC1155PausableUpgradeable {\n\n  bytes32 public constant MINTER_ROLE = keccak256(\"MINTER_ROLE\");\n\n  function __ERC1155Token_init(string memory uri, address minter) internal initializer {\n    __Context_init_unchained();\n    __ERC165_init_unchained();\n    __AccessControl_init_unchained();\n    __AccessControlEnumerable_init_unchained();\n    __ERC1155_init_unchained(uri);\n    __ERC1155Burnable_init_unchained();\n    __Pausable_init_unchained();\n    __ERC1155Pausable_init_unchained();\n    __ERC1155Token_init_unchained(minter);\n  }\n\n  function __ERC1155Token_init_unchained(address minter) internal initializer {\n    _setupRole(DEFAULT_ADMIN_ROLE, _msgSender());\n    _setupRole(MINTER_ROLE, minter);\n  }\n\n  function pause() public {\n    require(hasRole(DEFAULT_ADMIN_ROLE, _msgSender()), \"ERC1155Token: must have admin role to pause\");\n    _pause();\n  }\n\n  function unpause() public {\n    require(hasRole(DEFAULT_ADMIN_ROLE, _msgSender()), \"ERC1155Token: must have admin role to unpause\");\n    _unpause();\n  }\n\n  function supportsInterface(bytes4 interfaceId) public view override(AccessControlEnumerableUpgradeable, ERC1155Upgradeable) returns (bool) {\n    return super.supportsInterface(interfaceId);\n  }\n\n  function _beforeTokenTransfer(\n      address operator,\n      address from,\n      address to,\n      uint256[] memory ids,\n      uint256[] memory amounts,\n      bytes memory data\n  )\n      internal override(ERC1155Upgradeable, ERC1155PausableUpgradeable)\n  {\n      super._beforeTokenTransfer(operator, from, to, ids, amounts, data);\n  }\n  uint256[50] private __gap;\n}",
  "sourcePath": "/Users/jernejpregelj/dev/markeljc/trill/smartcontracts/contracts/ERC1155Token.sol",
  "compiler": {
    "name": "solc",
    "version": "0.8.0+commit.c7dfd78e.Emscripten.clang"
  },
  "schemaVersion": "3.4.1",
  "updatedAt": "2021-09-23T15:46:09.479Z",
  "devdoc": {
    "kind": "dev",
    "methods": {
      "balanceOf(address,uint256)": {
        "details": "See {IERC1155-balanceOf}. Requirements: - `account` cannot be the zero address."
      },
      "balanceOfBatch(address[],uint256[])": {
        "details": "See {IERC1155-balanceOfBatch}. Requirements: - `accounts` and `ids` must have the same length."
      },
      "getRoleAdmin(bytes32)": {
        "details": "Returns the admin role that controls `role`. See {grantRole} and {revokeRole}. To change a role's admin, use {_setRoleAdmin}."
      },
      "getRoleMember(bytes32,uint256)": {
        "details": "Returns one of the accounts that have `role`. `index` must be a value between 0 and {getRoleMemberCount}, non-inclusive. Role bearers are not sorted in any particular way, and their ordering may change at any point. WARNING: When using {getRoleMember} and {getRoleMemberCount}, make sure you perform all queries on the same block. See the following https://forum.openzeppelin.com/t/iterating-over-elements-on-enumerableset-in-openzeppelin-contracts/2296[forum post] for more information."
      },
      "getRoleMemberCount(bytes32)": {
        "details": "Returns the number of accounts that have `role`. Can be used together with {getRoleMember} to enumerate all bearers of a role."
      },
      "grantRole(bytes32,address)": {
        "details": "Overload {grantRole} to track enumerable memberships"
      },
      "hasRole(bytes32,address)": {
        "details": "Returns `true` if `account` has been granted `role`."
      },
      "isApprovedForAll(address,address)": {
        "details": "See {IERC1155-isApprovedForAll}."
      },
      "paused()": {
        "details": "Returns true if the contract is paused, and false otherwise."
      },
      "renounceRole(bytes32,address)": {
        "details": "Overload {renounceRole} to track enumerable memberships"
      },
      "revokeRole(bytes32,address)": {
        "details": "Overload {revokeRole} to track enumerable memberships"
      },
      "safeBatchTransferFrom(address,address,uint256[],uint256[],bytes)": {
        "details": "See {IERC1155-safeBatchTransferFrom}."
      },
      "safeTransferFrom(address,address,uint256,uint256,bytes)": {
        "details": "See {IERC1155-safeTransferFrom}."
      },
      "setApprovalForAll(address,bool)": {
        "details": "See {IERC1155-setApprovalForAll}."
      },
      "uri(uint256)": {
        "details": "See {IERC1155MetadataURI-uri}. This implementation returns the same URI for *all* token types. It relies on the token type ID substitution mechanism https://eips.ethereum.org/EIPS/eip-1155#metadata[defined in the EIP]. Clients calling this function must replace the `\\{id\\}` substring with the actual token type ID."
      }
    },
    "version": 1
  },
  "userdoc": {
    "kind": "user",
    "methods": {},
    "version": 1
  }
}