{
  "contractName": "Marketplace",
  "abi": [
    {
      "anonymous": false,
      "inputs": [
        {
          "indexed": false,
          "internalType": "uint8",
          "name": "_action",
          "type": "uint8"
        },
        {
          "indexed": false,
          "internalType": "uint256",
          "name": "_tokenId",
          "type": "uint256"
        },
        {
          "indexed": false,
          "internalType": "uint256",
          "name": "_amount",
          "type": "uint256"
        },
        {
          "indexed": false,
          "internalType": "address",
          "name": "_from",
          "type": "address"
        },
        {
          "indexed": false,
          "internalType": "address",
          "name": "_to",
          "type": "address"
        }
      ],
      "name": "MarketplaceEthTransfer",
      "type": "event"
    },
    {
      "anonymous": false,
      "inputs": [
        {
          "indexed": false,
          "internalType": "address",
          "name": "account",
          "type": "address"
        },
        {
          "indexed": false,
          "internalType": "uint256",
          "name": "tokenId",
          "type": "uint256"
        }
      ],
      "name": "OrderBought",
      "type": "event"
    },
    {
      "anonymous": false,
      "inputs": [
        {
          "indexed": false,
          "internalType": "uint256",
          "name": "tokenId",
          "type": "uint256"
        }
      ],
      "name": "OrderCanceled",
      "type": "event"
    },
    {
      "anonymous": false,
      "inputs": [
        {
          "indexed": false,
          "internalType": "address",
          "name": "seller",
          "type": "address"
        },
        {
          "indexed": false,
          "internalType": "uint256",
          "name": "tokenId",
          "type": "uint256"
        },
        {
          "indexed": false,
          "internalType": "uint256",
          "name": "price",
          "type": "uint256"
        }
      ],
      "name": "OrderCreated",
      "type": "event"
    },
    {
      "inputs": [
        {
          "internalType": "uint256",
          "name": "",
          "type": "uint256"
        }
      ],
      "name": "market",
      "outputs": [
        {
          "internalType": "address",
          "name": "seller",
          "type": "address"
        },
        {
          "internalType": "uint256",
          "name": "price",
          "type": "uint256"
        }
      ],
      "stateMutability": "view",
      "type": "function",
      "constant": true
    },
    {
      "inputs": [
        {
          "internalType": "bytes4",
          "name": "interfaceId",
          "type": "bytes4"
        }
      ],
      "name": "supportsInterface",
      "outputs": [
        {
          "internalType": "bool",
          "name": "",
          "type": "bool"
        }
      ],
      "stateMutability": "view",
      "type": "function",
      "constant": true
    },
    {
      "inputs": [],
      "name": "topxInstance",
      "outputs": [
        {
          "internalType": "contract Topx",
          "name": "",
          "type": "address"
        }
      ],
      "stateMutability": "view",
      "type": "function",
      "constant": true
    },
    {
      "inputs": [
        {
          "internalType": "contract Topx",
          "name": "_topxInstance",
          "type": "address"
        }
      ],
      "name": "initialize",
      "outputs": [],
      "stateMutability": "nonpayable",
      "type": "function"
    },
    {
      "inputs": [
        {
          "internalType": "uint256",
          "name": "_tokenId",
          "type": "uint256"
        }
      ],
      "name": "buyOrder",
      "outputs": [],
      "stateMutability": "payable",
      "type": "function",
      "payable": true
    },
    {
      "inputs": [
        {
          "internalType": "uint256",
          "name": "tokenId",
          "type": "uint256"
        }
      ],
      "name": "cancelOrder",
      "outputs": [],
      "stateMutability": "nonpayable",
      "type": "function"
    },
    {
      "inputs": [
        {
          "internalType": "uint256",
          "name": "tokenId",
          "type": "uint256"
        },
        {
          "internalType": "uint256",
          "name": "price",
          "type": "uint256"
        }
      ],
      "name": "addOrder",
      "outputs": [],
      "stateMutability": "nonpayable",
      "type": "function"
    },
    {
      "inputs": [
        {
          "internalType": "uint256",
          "name": "tokenId",
          "type": "uint256"
        }
      ],
      "name": "getOrder",
      "outputs": [
        {
          "internalType": "address",
          "name": "",
          "type": "address"
        },
        {
          "internalType": "uint256",
          "name": "",
          "type": "uint256"
        }
      ],
      "stateMutability": "view",
      "type": "function",
      "constant": true
    },
    {
      "inputs": [
        {
          "internalType": "address",
          "name": "operator",
          "type": "address"
        },
        {
          "internalType": "address",
          "name": "from",
          "type": "address"
        },
        {
          "internalType": "uint256",
          "name": "id",
          "type": "uint256"
        },
        {
          "internalType": "uint256",
          "name": "value",
          "type": "uint256"
        },
        {
          "internalType": "bytes",
          "name": "data",
          "type": "bytes"
        }
      ],
      "name": "onERC1155Received",
      "outputs": [
        {
          "internalType": "bytes4",
          "name": "",
          "type": "bytes4"
        }
      ],
      "stateMutability": "pure",
      "type": "function",
      "constant": true
    },
    {
      "inputs": [
        {
          "internalType": "address",
          "name": "operator",
          "type": "address"
        },
        {
          "internalType": "address",
          "name": "from",
          "type": "address"
        },
        {
          "internalType": "uint256[]",
          "name": "ids",
          "type": "uint256[]"
        },
        {
          "internalType": "uint256[]",
          "name": "values",
          "type": "uint256[]"
        },
        {
          "internalType": "bytes",
          "name": "data",
          "type": "bytes"
        }
      ],
      "name": "onERC1155BatchReceived",
      "outputs": [
        {
          "internalType": "bytes4",
          "name": "",
          "type": "bytes4"
        }
      ],
      "stateMutability": "pure",
      "type": "function",
      "constant": true
    }
  ],
  "bytecode": "0x608060405234801561001057600080fd5b5061115c806100206000396000f3fe6080604052600436106100b15760003560e01c8063bc197c8111610069578063d09ef2411161004e578063d09ef241146101be578063f23a6e61146101de578063f28db6c4146101fe576100b1565b8063bc197c8114610171578063c4d66de81461019e576100b1565b806328861d221161009a57806328861d2214610101578063514fcac71461012f578063748029b71461014f576100b1565b806301ffc9a7146100b657806322f85eaa146100ec575b600080fd5b3480156100c257600080fd5b506100d66100d1366004610d97565b61021e565b6040516100e39190610ecb565b60405180910390f35b6100ff6100fa366004610dfa565b61027a565b005b34801561010d57600080fd5b5061012161011c366004610dfa565b6106e4565b6040516100e3929190610e91565b34801561013b57600080fd5b506100ff61014a366004610dfa565b610709565b34801561015b57600080fd5b50610164610889565b6040516100e39190610f03565b34801561017d57600080fd5b5061019161018c366004610c62565b610898565b6040516100e39190610ed6565b3480156101aa57600080fd5b506100ff6101b9366004610dde565b61089f565b3480156101ca57600080fd5b506101216101d9366004610dfa565b61095b565b3480156101ea57600080fd5b506101916101f9366004610d1d565b6109cb565b34801561020a57600080fd5b506100ff610219366004610e12565b6109f6565b60007fffffffff0000000000000000000000000000000000000000000000000000000082167f4e2312e0000000000000000000000000000000000000000000000000000000001480610274575061027482610b18565b92915050565b600081815260986020908152604091829020825180840190935280546001600160a01b0316808452600190910154918301919091526102d45760405162461bcd60e51b81526004016102cb90610fa8565b60405180910390fd5b60006102de610b62565b60975460208401516040517fc7ed115e0000000000000000000000000000000000000000000000000000000081529293506000928392839283928392839283926001600160a01b039092169163c7ed115e9161033f918e91906004016110a2565b60e06040518083038186803b15801561035757600080fd5b505afa15801561036b573d6000803e3d6000fd5b505050506040513d601f19601f8201168201806040525081019061038f9190610bef565b809750819850829950839a50849b50859c50869d50505050505050508089602001516103bb91906110b0565b3410156103da5760405162461bcd60e51b81526004016102cb90611062565b60006103e683836110b0565b9050600081856103f688346110c8565b61040091906110c8565b61040a91906110c8565b90507f01288a3a3d5cde96f4a266fd8f3c93f927e724e2a2408e4021ff916e0d3b113860018d888d8d604051610444959493929190610f17565b60405180910390a17f01288a3a3d5cde96f4a266fd8f3c93f927e724e2a2408e4021ff916e0d3b113860028d878d8c604051610484959493929190610f17565b60405180910390a17f01288a3a3d5cde96f4a266fd8f3c93f927e724e2a2408e4021ff916e0d3b113860048d848d8b6040516104c4959493929190610f17565b60405180910390a17f01288a3a3d5cde96f4a266fd8f3c93f927e724e2a2408e4021ff916e0d3b113860038d838d8f60000151604051610508959493929190610f17565b60405180910390a160008c8152609860205260408120805473ffffffffffffffffffffffffffffffffffffffff19168155600101557f831d0f226015280215c448c7bec3804ac62a60a732805b623de7ce3258411062610566610b62565b8d604051610575929190610e91565b60405180910390a16040516001600160a01b038a169087156108fc029088906000818181858888f193505050501580156105b3573d6000803e3d6000fd5b506040516001600160a01b0389169086156108fc029087906000818181858888f193505050501580156105ea573d6000803e3d6000fd5b506040516001600160a01b0388169083156108fc029084906000818181858888f19350505050158015610621573d6000803e3d6000fd5b508a516040516001600160a01b039091169082156108fc029083906000818181858888f1935050505015801561065b573d6000803e3d6000fd5b50609760009054906101000a90046001600160a01b03166001600160a01b031663f242432a308c8f60016040518563ffffffff1660e01b81526004016106a49493929190610e33565b600060405180830381600087803b1580156106be57600080fd5b505af11580156106d2573d6000803e3d6000fd5b50505050505050505050505050505050565b609860205260009081526040902080546001909101546001600160a01b039091169082565b6000818152609860205260409020546001600160a01b031661073d5760405162461bcd60e51b81526004016102cb90610fa8565b6000818152609860209081526040808320815180830190925280546001600160a01b03168252600101549181019190915290610777610b62565b9050806001600160a01b031682600001516001600160a01b03161461079b57600080fd5b600083815260986020526040808220805473ffffffffffffffffffffffffffffffffffffffff1916815560010191909155517fc41f4ceb2938876c35e61b705e9d2f18a02c4a26ce5e049a6308a943d46851b3906107fa908590611099565b60405180910390a16097546040517ff242432a0000000000000000000000000000000000000000000000000000000081526001600160a01b039091169063f242432a9061085290309085908890600190600401610e33565b600060405180830381600087803b15801561086c57600080fd5b505af1158015610880573d6000803e3d6000fd5b50505050505050565b6097546001600160a01b031681565b6000806000fd5b600054610100900460ff16806108b8575060005460ff16155b6108d45760405162461bcd60e51b81526004016102cb90611005565b600054610100900460ff1615801561091d57600080547fffffffffffffffffffffffffffffffffffffffffffffffffffffffffffffff0061ff0019909116610100171660011790555b6097805473ffffffffffffffffffffffffffffffffffffffff19166001600160a01b0384161790558015610957576000805461ff00191690555b5050565b60008181526098602052604081205481906001600160a01b03166109915760405162461bcd60e51b81526004016102cb90610fa8565b5050600090815260986020908152604091829020825180840190935280546001600160a01b03168084526001909101549290910182905291565b7ff23a6e612e1ff4830e658fe43f4e3cb4a5f8170bd5d9e69fb5d7a7fa9e4fdf979695505050505050565b6000828152609860205260409020546001600160a01b031615610a2b5760405162461bcd60e51b81526004016102cb90610f4b565b6000610a35610b62565b6040805180820182526001600160a01b038381168252602080830187815260008981526098909252908490209251835473ffffffffffffffffffffffffffffffffffffffff1916921691909117825551600190910155519091507fbb4cd350108fec46a02c87acb34a38f6c465fb2dc050687359c97229703bb8f490610ac090839086908690610eaa565b60405180910390a16097546040517ff242432a0000000000000000000000000000000000000000000000000000000081526001600160a01b039091169063f242432a9061085290849030908890600190600401610e33565b7fffffffff0000000000000000000000000000000000000000000000000000000081167f01ffc9a70000000000000000000000000000000000000000000000000000000014919050565b3390565b60008083601f840112610b77578182fd5b50813567ffffffffffffffff811115610b8e578182fd5b6020830191508360208083028501011115610ba857600080fd5b9250929050565b60008083601f840112610bc0578182fd5b50813567ffffffffffffffff811115610bd7578182fd5b602083019150836020828501011115610ba857600080fd5b600080600080600080600060e0888a031215610c09578283fd5b8751610c148161110e565b6020890151909750610c258161110e565b6040890151909650610c368161110e565b80955050606088015193506080880151925060a0880151915060c0880151905092959891949750929550565b60008060008060008060008060a0898b031215610c7d578081fd5b8835610c888161110e565b97506020890135610c988161110e565b9650604089013567ffffffffffffffff80821115610cb4578283fd5b610cc08c838d01610b66565b909850965060608b0135915080821115610cd8578283fd5b610ce48c838d01610b66565b909650945060808b0135915080821115610cfc578283fd5b50610d098b828c01610baf565b999c989b5096995094979396929594505050565b60008060008060008060a08789031215610d35578182fd5b8635610d408161110e565b95506020870135610d508161110e565b94506040870135935060608701359250608087013567ffffffffffffffff811115610d79578283fd5b610d8589828a01610baf565b979a9699509497509295939492505050565b600060208284031215610da8578081fd5b81357fffffffff0000000000000000000000000000000000000000000000000000000081168114610dd7578182fd5b9392505050565b600060208284031215610def578081fd5b8135610dd78161110e565b600060208284031215610e0b578081fd5b5035919050565b60008060408385031215610e24578182fd5b50508035926020909101359150565b6001600160a01b0394851681529290931660208301526040820152606081019190915260a0608082018190526002908201527f307800000000000000000000000000000000000000000000000000000000000060c082015260e00190565b6001600160a01b03929092168252602082015260400190565b6001600160a01b039390931683526020830191909152604082015260600190565b901515815260200190565b7fffffffff0000000000000000000000000000000000000000000000000000000091909116815260200190565b6001600160a01b0391909116815260200190565b60ff959095168552602085019390935260408401919091526001600160a01b03908116606084015216608082015260a00190565b6020808252602d908201527f546865726520616c726561647920697320616e206f70656e206f72646572206660408201527f6f72207468617420746f6b656e00000000000000000000000000000000000000606082015260800190565b60208082526027908201527f546865726520617265206e6f206f70656e206f726465727320666f722074686160408201527f7420746f6b656e00000000000000000000000000000000000000000000000000606082015260800190565b6020808252602e908201527f496e697469616c697a61626c653a20636f6e747261637420697320616c72656160408201527f647920696e697469616c697a6564000000000000000000000000000000000000606082015260800190565b60208082526015908201527f56616c7565206c657373207468616e2070726963650000000000000000000000604082015260600190565b90815260200190565b918252602082015260400190565b600082198211156110c3576110c36110df565b500190565b6000828210156110da576110da6110df565b500390565b7f4e487b7100000000000000000000000000000000000000000000000000000000600052601160045260246000fd5b6001600160a01b038116811461112357600080fd5b5056fea264697066735822122067a3c261c28ee12582e391b235a842a33ebe468faa64f1ae0cab702fd46fd2aa64736f6c63430008000033",
  "immutableReferences": {},
  "source": "// SPDX-License-Identifier: MIT\npragma solidity ^0.8.0;\n\nimport \"../node_modules/@openzeppelin/contracts-upgradeable/token/ERC1155/utils/ERC1155ReceiverUpgradeable.sol\";\nimport \"../node_modules/@openzeppelin/contracts-upgradeable/utils/ContextUpgradeable.sol\";\nimport \"../node_modules/@openzeppelin/contracts-upgradeable/proxy/utils/Initializable.sol\";\nimport \"./Topx.sol\";\n\nstruct Order {\n  address seller;\n  uint256 price;\n}\n\ncontract Marketplace is Initializable, ContextUpgradeable, ERC1155ReceiverUpgradeable {\n\n  Topx public topxInstance;\n\n  mapping(uint256 => Order) public market;\n\n  event OrderCreated(\n    address seller,\n    uint256 tokenId,\n    uint256 price\n  );\n\n  event OrderBought(\n    address account,\n    uint256 tokenId\n  );\n\n  event OrderCanceled(\n    uint256 tokenId\n  );\n\n  function initialize(Topx _topxInstance) external initializer {\n    topxInstance = _topxInstance;\n  }\n\n  event MarketplaceEthTransfer(uint8 _action, uint256 _tokenId, uint256 _amount, address _from, address _to);\n  \n  function buyOrder(uint256 _tokenId) external payable {\n    Order memory order = market[_tokenId];\n    require(order.seller != address(0x0), \"There are no open orders for that token\");\n    address sender = _msgSender();\n    // get royalty info\n    address creator;\n    address artist;\n    address platform;\n    uint256 creatorRoyalty;\n    uint256 artistRoyalty;\n    uint256 platformRoyalty;\n    uint256 upfrontRoyalty;\n    (creator, artist, platform, creatorRoyalty, artistRoyalty, platformRoyalty, upfrontRoyalty) = topxInstance.getRoyaltyInfo(_tokenId, order.price);\n    // validate\n    require(msg.value >= order.price + upfrontRoyalty, \"Value less than price\");\n    // calc\n    uint256 fullPlatformRoyalty = upfrontRoyalty + platformRoyalty;\n    uint256 fullSeller = msg.value - creatorRoyalty - artistRoyalty - fullPlatformRoyalty;\n    // logs\n    emit MarketplaceEthTransfer(1, _tokenId, creatorRoyalty, sender, creator);\n    emit MarketplaceEthTransfer(2, _tokenId, artistRoyalty, sender, artist);\n    emit MarketplaceEthTransfer(4, _tokenId, fullPlatformRoyalty, sender, platform);\n    emit MarketplaceEthTransfer(3, _tokenId, fullSeller, sender, order.seller);\n    // close and transfer\n    delete market[_tokenId];\n    emit OrderBought(_msgSender(), _tokenId);\n    // transfers\n    payable(creator).transfer(creatorRoyalty);\n    payable(artist).transfer(artistRoyalty);\n    payable(platform).transfer(fullPlatformRoyalty);\n    payable(order.seller).transfer(fullSeller);\n    topxInstance.safeTransferFrom(address(this), sender, _tokenId, 1, '0x');\n  }\n\n  function cancelOrder(uint256 tokenId) external {\n    require(market[tokenId].seller != address(0x0), \"There are no open orders for that token\");\n    Order memory order = market[tokenId];\n    address sender = _msgSender();\n    require(order.seller == sender);\n    delete market[tokenId];\n    emit OrderCanceled(tokenId);\n    topxInstance.safeTransferFrom(address(this), sender, tokenId, 1, '0x');\n  }\n\n  function addOrder(uint256 tokenId, uint256 price) external {\n    require(market[tokenId].seller == address(0x0), \"There already is an open order for that token\");\n    address sender = _msgSender();\n    market[tokenId] = Order(sender, price);\n    emit OrderCreated(sender, tokenId, price);\n    topxInstance.safeTransferFrom(sender, address(this), tokenId, 1, '0x');\n  }\n\n  function getOrder(uint256 tokenId) external view returns ( address, uint256 ) {\n    require(market[tokenId].seller != address(0x0), \"There are no open orders for that token\");\n    Order memory order = market[tokenId];\n    return (order.seller, order.price);\n  }\n\n  function onERC1155Received(\n    address operator,\n    address from,\n    uint256 id,\n    uint256 value,\n    bytes calldata data\n  ) external override pure returns (bytes4) {\n    return (\n      bytes4(\n        keccak256(\n          \"onERC1155Received(address,address,uint256,uint256,bytes)\"\n        )\n      )\n    );\n  }\n\n  function onERC1155BatchReceived(\n    address operator,\n    address from,\n    uint256[] calldata ids,\n    uint256[] calldata values,\n    bytes calldata data\n  ) external override pure returns (bytes4) {\n    revert();\n    return \"\";\n  }   \n}",
  "sourcePath": "/Users/jernejpregelj/dev/markeljc/trill/smartcontracts/contracts/Marketplace.sol",
  "compiler": {
    "name": "solc",
    "version": "0.8.0+commit.c7dfd78e.Emscripten.clang"
  },
  "schemaVersion": "3.4.1",
  "updatedAt": "2021-09-27T17:38:50.887Z",
  "networkType": "ethereum",
  "devdoc": {
    "kind": "dev",
    "methods": {
      "onERC1155BatchReceived(address,address,uint256[],uint256[],bytes)": {
        "details": "Handles the receipt of a multiple ERC1155 token types. This function is called at the end of a `safeBatchTransferFrom` after the balances have been updated. To accept the transfer(s), this must return `bytes4(keccak256(\"onERC1155BatchReceived(address,address,uint256[],uint256[],bytes)\"))` (i.e. 0xbc197c81, or its own function selector).",
        "params": {
          "data": "Additional data with no specified format",
          "from": "The address which previously owned the token",
          "ids": "An array containing ids of each token being transferred (order and length must match values array)",
          "operator": "The address which initiated the batch transfer (i.e. msg.sender)",
          "values": "An array containing amounts of each token being transferred (order and length must match ids array)"
        },
        "returns": {
          "_0": "`bytes4(keccak256(\"onERC1155BatchReceived(address,address,uint256[],uint256[],bytes)\"))` if transfer is allowed"
        }
      },
      "onERC1155Received(address,address,uint256,uint256,bytes)": {
        "details": "Handles the receipt of a single ERC1155 token type. This function is called at the end of a `safeTransferFrom` after the balance has been updated. To accept the transfer, this must return `bytes4(keccak256(\"onERC1155Received(address,address,uint256,uint256,bytes)\"))` (i.e. 0xf23a6e61, or its own function selector).",
        "params": {
          "data": "Additional data with no specified format",
          "from": "The address which previously owned the token",
          "id": "The ID of the token being transferred",
          "operator": "The address which initiated the transfer (i.e. msg.sender)",
          "value": "The amount of tokens being transferred"
        },
        "returns": {
          "_0": "`bytes4(keccak256(\"onERC1155Received(address,address,uint256,uint256,bytes)\"))` if transfer is allowed"
        }
      },
      "supportsInterface(bytes4)": {
        "details": "See {IERC165-supportsInterface}."
      }
    },
    "version": 1
  },
  "userdoc": {
    "kind": "user",
    "methods": {},
    "version": 1
  }
}