{
  "contractName": "Topx",
  "abi": [
    {
      "anonymous": false,
      "inputs": [
        {
          "indexed": true,
          "internalType": "address",
          "name": "account",
          "type": "address"
        },
        {
          "indexed": true,
          "internalType": "address",
          "name": "operator",
          "type": "address"
        },
        {
          "indexed": false,
          "internalType": "bool",
          "name": "approved",
          "type": "bool"
        }
      ],
      "name": "ApprovalForAll",
      "type": "event"
    },
    {
      "anonymous": false,
      "inputs": [
        {
          "indexed": false,
          "internalType": "uint8",
          "name": "_action",
          "type": "uint8"
        },
        {
          "indexed": false,
          "internalType": "uint256",
          "name": "_tokenId",
          "type": "uint256"
        },
        {
          "indexed": false,
          "internalType": "uint256",
          "name": "_amount",
          "type": "uint256"
        },
        {
          "indexed": false,
          "internalType": "address",
          "name": "_from",
          "type": "address"
        },
        {
          "indexed": false,
          "internalType": "address",
          "name": "_to",
          "type": "address"
        }
      ],
      "name": "EthTopxTransfer",
      "type": "event"
    },
    {
      "anonymous": false,
      "inputs": [
        {
          "indexed": false,
          "internalType": "address",
          "name": "account",
          "type": "address"
        }
      ],
      "name": "Paused",
      "type": "event"
    },
    {
      "anonymous": false,
      "inputs": [
        {
          "indexed": true,
          "internalType": "bytes32",
          "name": "role",
          "type": "bytes32"
        },
        {
          "indexed": true,
          "internalType": "bytes32",
          "name": "previousAdminRole",
          "type": "bytes32"
        },
        {
          "indexed": true,
          "internalType": "bytes32",
          "name": "newAdminRole",
          "type": "bytes32"
        }
      ],
      "name": "RoleAdminChanged",
      "type": "event"
    },
    {
      "anonymous": false,
      "inputs": [
        {
          "indexed": true,
          "internalType": "bytes32",
          "name": "role",
          "type": "bytes32"
        },
        {
          "indexed": true,
          "internalType": "address",
          "name": "account",
          "type": "address"
        },
        {
          "indexed": true,
          "internalType": "address",
          "name": "sender",
          "type": "address"
        }
      ],
      "name": "RoleGranted",
      "type": "event"
    },
    {
      "anonymous": false,
      "inputs": [
        {
          "indexed": true,
          "internalType": "bytes32",
          "name": "role",
          "type": "bytes32"
        },
        {
          "indexed": true,
          "internalType": "address",
          "name": "account",
          "type": "address"
        },
        {
          "indexed": true,
          "internalType": "address",
          "name": "sender",
          "type": "address"
        }
      ],
      "name": "RoleRevoked",
      "type": "event"
    },
    {
      "anonymous": false,
      "inputs": [
        {
          "indexed": true,
          "internalType": "address",
          "name": "operator",
          "type": "address"
        },
        {
          "indexed": true,
          "internalType": "address",
          "name": "from",
          "type": "address"
        },
        {
          "indexed": true,
          "internalType": "address",
          "name": "to",
          "type": "address"
        },
        {
          "indexed": false,
          "internalType": "uint256[]",
          "name": "ids",
          "type": "uint256[]"
        },
        {
          "indexed": false,
          "internalType": "uint256[]",
          "name": "values",
          "type": "uint256[]"
        }
      ],
      "name": "TransferBatch",
      "type": "event"
    },
    {
      "anonymous": false,
      "inputs": [
        {
          "indexed": true,
          "internalType": "address",
          "name": "operator",
          "type": "address"
        },
        {
          "indexed": true,
          "internalType": "address",
          "name": "from",
          "type": "address"
        },
        {
          "indexed": true,
          "internalType": "address",
          "name": "to",
          "type": "address"
        },
        {
          "indexed": false,
          "internalType": "uint256",
          "name": "id",
          "type": "uint256"
        },
        {
          "indexed": false,
          "internalType": "uint256",
          "name": "value",
          "type": "uint256"
        }
      ],
      "name": "TransferSingle",
      "type": "event"
    },
    {
      "anonymous": false,
      "inputs": [
        {
          "indexed": false,
          "internalType": "string",
          "name": "value",
          "type": "string"
        },
        {
          "indexed": true,
          "internalType": "uint256",
          "name": "id",
          "type": "uint256"
        }
      ],
      "name": "URI",
      "type": "event"
    },
    {
      "anonymous": false,
      "inputs": [
        {
          "indexed": false,
          "internalType": "address",
          "name": "account",
          "type": "address"
        }
      ],
      "name": "Unpaused",
      "type": "event"
    },
    {
      "anonymous": false,
      "inputs": [
        {
          "indexed": false,
          "internalType": "uint256",
          "name": "_packid",
          "type": "uint256"
        },
        {
          "indexed": false,
          "internalType": "uint256",
          "name": "_from",
          "type": "uint256"
        },
        {
          "indexed": false,
          "internalType": "address",
          "name": "_creator",
          "type": "address"
        },
        {
          "indexed": false,
          "internalType": "uint256",
          "name": "_price",
          "type": "uint256"
        },
        {
          "indexed": false,
          "internalType": "uint256",
          "name": "_supply",
          "type": "uint256"
        }
      ],
      "name": "addLootBox",
      "type": "event"
    },
    {
      "anonymous": false,
      "inputs": [
        {
          "indexed": false,
          "internalType": "uint256",
          "name": "_itemid",
          "type": "uint256"
        },
        {
          "indexed": false,
          "internalType": "uint256",
          "name": "_packid",
          "type": "uint256"
        },
        {
          "indexed": false,
          "internalType": "uint256",
          "name": "_from",
          "type": "uint256"
        },
        {
          "indexed": false,
          "internalType": "address",
          "name": "_artist",
          "type": "address"
        },
        {
          "indexed": false,
          "internalType": "uint256",
          "name": "_supply",
          "type": "uint256"
        }
      ],
      "name": "addLootBoxItem",
      "type": "event"
    },
    {
      "anonymous": false,
      "inputs": [
        {
          "indexed": false,
          "internalType": "uint256",
          "name": "_id",
          "type": "uint256"
        },
        {
          "indexed": false,
          "internalType": "address",
          "name": "_account",
          "type": "address"
        },
        {
          "indexed": false,
          "internalType": "uint256",
          "name": "_tokenId",
          "type": "uint256"
        }
      ],
      "name": "mintItem",
      "type": "event"
    },
    {
      "anonymous": false,
      "inputs": [
        {
          "indexed": false,
          "internalType": "uint256",
          "name": "_id",
          "type": "uint256"
        },
        {
          "indexed": false,
          "internalType": "address",
          "name": "_account",
          "type": "address"
        },
        {
          "indexed": false,
          "internalType": "uint256",
          "name": "_tokenId",
          "type": "uint256"
        },
        {
          "indexed": false,
          "internalType": "uint256",
          "name": "_count",
          "type": "uint256"
        }
      ],
      "name": "mintLootBox",
      "type": "event"
    },
    {
      "inputs": [],
      "name": "DEFAULT_ADMIN_ROLE",
      "outputs": [
        {
          "internalType": "bytes32",
          "name": "",
          "type": "bytes32"
        }
      ],
      "stateMutability": "view",
      "type": "function",
      "constant": true
    },
    {
      "inputs": [],
      "name": "MINTER_ROLE",
      "outputs": [
        {
          "internalType": "bytes32",
          "name": "",
          "type": "bytes32"
        }
      ],
      "stateMutability": "view",
      "type": "function",
      "constant": true
    },
    {
      "inputs": [
        {
          "internalType": "address",
          "name": "account",
          "type": "address"
        },
        {
          "internalType": "uint256",
          "name": "id",
          "type": "uint256"
        }
      ],
      "name": "balanceOf",
      "outputs": [
        {
          "internalType": "uint256",
          "name": "",
          "type": "uint256"
        }
      ],
      "stateMutability": "view",
      "type": "function",
      "constant": true
    },
    {
      "inputs": [
        {
          "internalType": "address[]",
          "name": "accounts",
          "type": "address[]"
        },
        {
          "internalType": "uint256[]",
          "name": "ids",
          "type": "uint256[]"
        }
      ],
      "name": "balanceOfBatch",
      "outputs": [
        {
          "internalType": "uint256[]",
          "name": "",
          "type": "uint256[]"
        }
      ],
      "stateMutability": "view",
      "type": "function",
      "constant": true
    },
    {
      "inputs": [
        {
          "internalType": "address",
          "name": "account",
          "type": "address"
        },
        {
          "internalType": "uint256",
          "name": "id",
          "type": "uint256"
        },
        {
          "internalType": "uint256",
          "name": "value",
          "type": "uint256"
        }
      ],
      "name": "burn",
      "outputs": [],
      "stateMutability": "nonpayable",
      "type": "function"
    },
    {
      "inputs": [
        {
          "internalType": "address",
          "name": "account",
          "type": "address"
        },
        {
          "internalType": "uint256[]",
          "name": "ids",
          "type": "uint256[]"
        },
        {
          "internalType": "uint256[]",
          "name": "values",
          "type": "uint256[]"
        }
      ],
      "name": "burnBatch",
      "outputs": [],
      "stateMutability": "nonpayable",
      "type": "function"
    },
    {
      "inputs": [
        {
          "internalType": "bytes32",
          "name": "role",
          "type": "bytes32"
        }
      ],
      "name": "getRoleAdmin",
      "outputs": [
        {
          "internalType": "bytes32",
          "name": "",
          "type": "bytes32"
        }
      ],
      "stateMutability": "view",
      "type": "function",
      "constant": true
    },
    {
      "inputs": [
        {
          "internalType": "bytes32",
          "name": "role",
          "type": "bytes32"
        },
        {
          "internalType": "uint256",
          "name": "index",
          "type": "uint256"
        }
      ],
      "name": "getRoleMember",
      "outputs": [
        {
          "internalType": "address",
          "name": "",
          "type": "address"
        }
      ],
      "stateMutability": "view",
      "type": "function",
      "constant": true
    },
    {
      "inputs": [
        {
          "internalType": "bytes32",
          "name": "role",
          "type": "bytes32"
        }
      ],
      "name": "getRoleMemberCount",
      "outputs": [
        {
          "internalType": "uint256",
          "name": "",
          "type": "uint256"
        }
      ],
      "stateMutability": "view",
      "type": "function",
      "constant": true
    },
    {
      "inputs": [
        {
          "internalType": "bytes32",
          "name": "role",
          "type": "bytes32"
        },
        {
          "internalType": "address",
          "name": "account",
          "type": "address"
        }
      ],
      "name": "grantRole",
      "outputs": [],
      "stateMutability": "nonpayable",
      "type": "function"
    },
    {
      "inputs": [
        {
          "internalType": "bytes32",
          "name": "role",
          "type": "bytes32"
        },
        {
          "internalType": "address",
          "name": "account",
          "type": "address"
        }
      ],
      "name": "hasRole",
      "outputs": [
        {
          "internalType": "bool",
          "name": "",
          "type": "bool"
        }
      ],
      "stateMutability": "view",
      "type": "function",
      "constant": true
    },
    {
      "inputs": [
        {
          "internalType": "address",
          "name": "account",
          "type": "address"
        },
        {
          "internalType": "address",
          "name": "operator",
          "type": "address"
        }
      ],
      "name": "isApprovedForAll",
      "outputs": [
        {
          "internalType": "bool",
          "name": "",
          "type": "bool"
        }
      ],
      "stateMutability": "view",
      "type": "function",
      "constant": true
    },
    {
      "inputs": [
        {
          "internalType": "uint256",
          "name": "",
          "type": "uint256"
        }
      ],
      "name": "lootBoxItems",
      "outputs": [
        {
          "internalType": "uint256",
          "name": "index",
          "type": "uint256"
        },
        {
          "internalType": "uint256",
          "name": "lootBoxIndex",
          "type": "uint256"
        },
        {
          "internalType": "uint256",
          "name": "fromId",
          "type": "uint256"
        },
        {
          "internalType": "address",
          "name": "artist",
          "type": "address"
        },
        {
          "internalType": "uint32",
          "name": "count",
          "type": "uint32"
        },
        {
          "internalType": "uint32",
          "name": "supply",
          "type": "uint32"
        },
        {
          "internalType": "uint16",
          "name": "creatorTradingRoyalty",
          "type": "uint16"
        },
        {
          "internalType": "uint16",
          "name": "artistTradingRoyalty",
          "type": "uint16"
        }
      ],
      "stateMutability": "view",
      "type": "function",
      "constant": true
    },
    {
      "inputs": [
        {
          "internalType": "uint256",
          "name": "",
          "type": "uint256"
        }
      ],
      "name": "lootBoxes",
      "outputs": [
        {
          "internalType": "uint256",
          "name": "index",
          "type": "uint256"
        },
        {
          "internalType": "uint256",
          "name": "fromId",
          "type": "uint256"
        },
        {
          "internalType": "uint256",
          "name": "price",
          "type": "uint256"
        },
        {
          "internalType": "address",
          "name": "creator",
          "type": "address"
        },
        {
          "internalType": "uint32",
          "name": "count",
          "type": "uint32"
        },
        {
          "internalType": "uint32",
          "name": "supply",
          "type": "uint32"
        },
        {
          "internalType": "uint16",
          "name": "creatorBuyingRoyalty",
          "type": "uint16"
        },
        {
          "internalType": "uint16",
          "name": "creatorTradingRoyalty",
          "type": "uint16"
        },
        {
          "internalType": "address",
          "name": "artist",
          "type": "address"
        },
        {
          "internalType": "uint16",
          "name": "artistBuyingRoyalty",
          "type": "uint16"
        },
        {
          "internalType": "uint16",
          "name": "artistTradingRoyalty",
          "type": "uint16"
        },
        {
          "internalType": "uint64",
          "name": "release",
          "type": "uint64"
        },
        {
          "internalType": "uint16",
          "name": "dropRate",
          "type": "uint16"
        }
      ],
      "stateMutability": "view",
      "type": "function",
      "constant": true
    },
    {
      "inputs": [],
      "name": "pause",
      "outputs": [],
      "stateMutability": "nonpayable",
      "type": "function"
    },
    {
      "inputs": [],
      "name": "paused",
      "outputs": [
        {
          "internalType": "bool",
          "name": "",
          "type": "bool"
        }
      ],
      "stateMutability": "view",
      "type": "function",
      "constant": true
    },
    {
      "inputs": [
        {
          "internalType": "bytes32",
          "name": "role",
          "type": "bytes32"
        },
        {
          "internalType": "address",
          "name": "account",
          "type": "address"
        }
      ],
      "name": "renounceRole",
      "outputs": [],
      "stateMutability": "nonpayable",
      "type": "function"
    },
    {
      "inputs": [
        {
          "internalType": "bytes32",
          "name": "role",
          "type": "bytes32"
        },
        {
          "internalType": "address",
          "name": "account",
          "type": "address"
        }
      ],
      "name": "revokeRole",
      "outputs": [],
      "stateMutability": "nonpayable",
      "type": "function"
    },
    {
      "inputs": [
        {
          "internalType": "address",
          "name": "from",
          "type": "address"
        },
        {
          "internalType": "address",
          "name": "to",
          "type": "address"
        },
        {
          "internalType": "uint256[]",
          "name": "ids",
          "type": "uint256[]"
        },
        {
          "internalType": "uint256[]",
          "name": "amounts",
          "type": "uint256[]"
        },
        {
          "internalType": "bytes",
          "name": "data",
          "type": "bytes"
        }
      ],
      "name": "safeBatchTransferFrom",
      "outputs": [],
      "stateMutability": "nonpayable",
      "type": "function"
    },
    {
      "inputs": [
        {
          "internalType": "address",
          "name": "from",
          "type": "address"
        },
        {
          "internalType": "address",
          "name": "to",
          "type": "address"
        },
        {
          "internalType": "uint256",
          "name": "id",
          "type": "uint256"
        },
        {
          "internalType": "uint256",
          "name": "amount",
          "type": "uint256"
        },
        {
          "internalType": "bytes",
          "name": "data",
          "type": "bytes"
        }
      ],
      "name": "safeTransferFrom",
      "outputs": [],
      "stateMutability": "nonpayable",
      "type": "function"
    },
    {
      "inputs": [
        {
          "internalType": "address",
          "name": "operator",
          "type": "address"
        },
        {
          "internalType": "bool",
          "name": "approved",
          "type": "bool"
        }
      ],
      "name": "setApprovalForAll",
      "outputs": [],
      "stateMutability": "nonpayable",
      "type": "function"
    },
    {
      "inputs": [
        {
          "internalType": "bytes4",
          "name": "interfaceId",
          "type": "bytes4"
        }
      ],
      "name": "supportsInterface",
      "outputs": [
        {
          "internalType": "bool",
          "name": "",
          "type": "bool"
        }
      ],
      "stateMutability": "view",
      "type": "function",
      "constant": true
    },
    {
      "inputs": [
        {
          "internalType": "uint256",
          "name": "",
          "type": "uint256"
        }
      ],
      "name": "tokenIdToLootBoxIndex",
      "outputs": [
        {
          "internalType": "uint256",
          "name": "",
          "type": "uint256"
        }
      ],
      "stateMutability": "view",
      "type": "function",
      "constant": true
    },
    {
      "inputs": [
        {
          "internalType": "uint256",
          "name": "",
          "type": "uint256"
        }
      ],
      "name": "tokenIdToLootBoxItemsIndex",
      "outputs": [
        {
          "internalType": "uint256",
          "name": "",
          "type": "uint256"
        }
      ],
      "stateMutability": "view",
      "type": "function",
      "constant": true
    },
    {
      "inputs": [
        {
          "internalType": "uint256",
          "name": "",
          "type": "uint256"
        }
      ],
      "name": "tokenIdType",
      "outputs": [
        {
          "internalType": "uint8",
          "name": "",
          "type": "uint8"
        }
      ],
      "stateMutability": "view",
      "type": "function",
      "constant": true
    },
    {
      "inputs": [],
      "name": "unpause",
      "outputs": [],
      "stateMutability": "nonpayable",
      "type": "function"
    },
    {
      "inputs": [
        {
          "internalType": "uint256",
          "name": "",
          "type": "uint256"
        }
      ],
      "name": "uri",
      "outputs": [
        {
          "internalType": "string",
          "name": "",
          "type": "string"
        }
      ],
      "stateMutability": "view",
      "type": "function",
      "constant": true
    },
    {
      "inputs": [
        {
          "internalType": "string",
          "name": "_uri",
          "type": "string"
        },
        {
          "internalType": "address",
          "name": "_minter",
          "type": "address"
        },
        {
          "internalType": "uint256",
          "name": "_platformTradingRoyalty",
          "type": "uint256"
        },
        {
          "internalType": "uint256",
          "name": "_platformTradingUpfrontRoyalty",
          "type": "uint256"
        },
        {
          "internalType": "address",
          "name": "_treasury",
          "type": "address"
        }
      ],
      "name": "initialize",
      "outputs": [],
      "stateMutability": "nonpayable",
      "type": "function"
    },
    {
      "inputs": [
        {
          "components": [
            {
              "internalType": "uint256",
              "name": "index",
              "type": "uint256"
            },
            {
              "internalType": "uint256",
              "name": "fromId",
              "type": "uint256"
            },
            {
              "internalType": "uint256",
              "name": "price",
              "type": "uint256"
            },
            {
              "internalType": "address",
              "name": "creator",
              "type": "address"
            },
            {
              "internalType": "uint32",
              "name": "count",
              "type": "uint32"
            },
            {
              "internalType": "uint32",
              "name": "supply",
              "type": "uint32"
            },
            {
              "internalType": "uint16",
              "name": "creatorBuyingRoyalty",
              "type": "uint16"
            },
            {
              "internalType": "uint16",
              "name": "creatorTradingRoyalty",
              "type": "uint16"
            },
            {
              "internalType": "address",
              "name": "artist",
              "type": "address"
            },
            {
              "internalType": "uint16",
              "name": "artistBuyingRoyalty",
              "type": "uint16"
            },
            {
              "internalType": "uint16",
              "name": "artistTradingRoyalty",
              "type": "uint16"
            },
            {
              "internalType": "uint64",
              "name": "release",
              "type": "uint64"
            },
            {
              "internalType": "uint16",
              "name": "dropRate",
              "type": "uint16"
            },
            {
              "internalType": "uint256[]",
              "name": "lootBoxItemsIndex",
              "type": "uint256[]"
            }
          ],
          "internalType": "struct LootBox",
          "name": "_lootBox",
          "type": "tuple"
        },
        {
          "components": [
            {
              "internalType": "uint256",
              "name": "index",
              "type": "uint256"
            },
            {
              "internalType": "uint256",
              "name": "lootBoxIndex",
              "type": "uint256"
            },
            {
              "internalType": "uint256",
              "name": "fromId",
              "type": "uint256"
            },
            {
              "internalType": "address",
              "name": "artist",
              "type": "address"
            },
            {
              "internalType": "uint32",
              "name": "count",
              "type": "uint32"
            },
            {
              "internalType": "uint32",
              "name": "supply",
              "type": "uint32"
            },
            {
              "internalType": "uint16",
              "name": "creatorTradingRoyalty",
              "type": "uint16"
            },
            {
              "internalType": "uint16",
              "name": "artistTradingRoyalty",
              "type": "uint16"
            }
          ],
          "internalType": "struct LootBoxItem[]",
          "name": "_lootBoxItems",
          "type": "tuple[]"
        }
      ],
      "name": "addLootBoxes",
      "outputs": [],
      "stateMutability": "nonpayable",
      "type": "function"
    },
    {
      "inputs": [
        {
          "internalType": "uint256",
          "name": "lootBoxIndex",
          "type": "uint256"
        }
      ],
      "name": "buyLootBox",
      "outputs": [
        {
          "internalType": "uint256",
          "name": "",
          "type": "uint256"
        }
      ],
      "stateMutability": "payable",
      "type": "function",
      "payable": true
    },
    {
      "inputs": [
        {
          "internalType": "uint256",
          "name": "tokenId",
          "type": "uint256"
        }
      ],
      "name": "openLootBox",
      "outputs": [],
      "stateMutability": "nonpayable",
      "type": "function"
    },
    {
      "inputs": [
        {
          "internalType": "uint256",
          "name": "lootBoxIndex",
          "type": "uint256"
        }
      ],
      "name": "buyAndOpenLootBox",
      "outputs": [],
      "stateMutability": "payable",
      "type": "function",
      "payable": true
    },
    {
      "inputs": [
        {
          "internalType": "uint256",
          "name": "_tokenId",
          "type": "uint256"
        },
        {
          "internalType": "uint256",
          "name": "_amount",
          "type": "uint256"
        }
      ],
      "name": "getRoyaltyInfo",
      "outputs": [
        {
          "internalType": "address",
          "name": "",
          "type": "address"
        },
        {
          "internalType": "address",
          "name": "",
          "type": "address"
        },
        {
          "internalType": "address",
          "name": "",
          "type": "address"
        },
        {
          "internalType": "uint256",
          "name": "",
          "type": "uint256"
        },
        {
          "internalType": "uint256",
          "name": "",
          "type": "uint256"
        },
        {
          "internalType": "uint256",
          "name": "",
          "type": "uint256"
        },
        {
          "internalType": "uint256",
          "name": "",
          "type": "uint256"
        }
      ],
      "stateMutability": "view",
      "type": "function",
      "constant": true
    },
    {
      "inputs": [],
      "name": "getTreasury",
      "outputs": [
        {
          "internalType": "address",
          "name": "",
          "type": "address"
        }
      ],
      "stateMutability": "view",
      "type": "function",
      "constant": true
    }
  ],
  "bytecode": "0x608060405234801561001057600080fd5b50615105806100206000396000f3fe6080604052600436106102185760003560e01c8063780bfe541161011d578063c7ed115e116100b0578063e6b9d9871161007f578063ec399b9711610064578063ec399b9714610626578063f242432a1461065a578063f5298aca1461067a57610218565b8063e6b9d987146105f3578063e985e9c51461060657610218565b8063c7ed115e1461056b578063ca15c8731461059e578063d5391393146105be578063d547741f146105d357610218565b806391d14854116100ec57806391d14854146104dd578063a217fddf146104fd578063a22cb46514610512578063b95f71de1461053257610218565b8063780bfe541461046857806379806568146104885780638456cb59146104a85780639010d07c146104bd57610218565b80633b19e84a116101b057806352bcd0ef1161017f5780635c975abb116101645780635c975abb146104065780636b20c4541461041b5780636f2829ba1461043b57610218565b806352bcd0ef146103d357806355a02c2d146103e657610218565b80633b19e84a1461034f5780633f4ba83a146103715780634a6ca015146103865780634e1273f4146103a657610218565b80632eb2c2d6116101ec5780632eb2c2d6146102cd5780632f2ff15d146102ef57806336568abe1461030f57806338fc87d61461032f57610218565b8062fdd58e1461021d57806301ffc9a7146102535780630e89341c14610280578063248a9ca3146102ad575b600080fd5b34801561022957600080fd5b5061023d610238366004613d0d565b61069a565b60405161024a9190614329565b60405180910390f35b34801561025f57600080fd5b5061027361026e366004613e81565b6106f6565b60405161024a919061431e565b34801561028c57600080fd5b506102a061029b366004613e26565b610709565b60405161024a9190614366565b3480156102b957600080fd5b5061023d6102c8366004613e26565b61079d565b3480156102d957600080fd5b506102ed6102e8366004613b59565b6107b2565b005b3480156102fb57600080fd5b506102ed61030a366004613e3e565b610810565b34801561031b57600080fd5b506102ed61032a366004613e3e565b610837565b34801561033b57600080fd5b506102ed61034a366004613f3c565b610859565b34801561035b57600080fd5b50610364610cfd565b60405161024a91906141f3565b34801561037d57600080fd5b506102ed610d0e565b34801561039257600080fd5b5061023d6103a1366004613e26565b610d41565b3480156103b257600080fd5b506103c66103c1366004613d68565b610d54565b60405161024a91906142dd565b6102ed6103e1366004613e26565b610e74565b3480156103f257600080fd5b506102ed610401366004613e26565b610f7a565b34801561041257600080fd5b50610273611390565b34801561042757600080fd5b506102ed610436366004613c62565b61139a565b34801561044757600080fd5b5061045b610456366004613e26565b6113ef565b60405161024a9190614da2565b34801561047457600080fd5b5061023d610483366004613e26565b611405565b34801561049457600080fd5b506102ed6104a3366004613eb9565b611418565b3480156104b457600080fd5b506102ed6114d0565b3480156104c957600080fd5b506103646104d8366004613e60565b611501565b3480156104e957600080fd5b506102736104f8366004613e3e565b611520565b34801561050957600080fd5b5061023d61154b565b34801561051e57600080fd5b506102ed61052d366004613cd3565b611550565b34801561053e57600080fd5b5061055261054d366004613e26565b61161e565b60405161024a9d9c9b9a99989796959493929190614cfa565b34801561057757600080fd5b5061058b610586366004613e60565b6116b5565b60405161024a9796959493929190614207565b3480156105aa57600080fd5b5061023d6105b9366004613e26565b611c36565b3480156105ca57600080fd5b5061023d611c4d565b3480156105df57600080fd5b506102ed6105ee366004613e3e565b611c71565b61023d610601366004613e26565b611c7b565b34801561061257600080fd5b50610273610621366004613b27565b612127565b34801561063257600080fd5b50610646610641366004613e26565b612155565b60405161024a989796959493929190614cab565b34801561066657600080fd5b506102ed610675366004613bff565b6121b7565b34801561068657600080fd5b506102ed610695366004613d36565b61220e565b60006001600160a01b0383166106cb5760405162461bcd60e51b81526004016106c29061449f565b60405180910390fd5b50600081815260c9602090815260408083206001600160a01b03861684529091529020545b92915050565b600061070182612263565b90505b919050565b606060cb805461071890614f20565b80601f016020809104026020016040519081016040528092919081815260200182805461074490614f20565b80156107915780601f1061076657610100808354040283529160200191610791565b820191906000526020600020905b81548152906001019060200180831161077457829003601f168201915b50505050509050919050565b60009081526065602052604090206001015490565b6107ba6122d5565b6001600160a01b0316856001600160a01b031614806107e057506107e0856106216122d5565b6107fc5760405162461bcd60e51b81526004016106c2906146de565b61080985858585856122d9565b5050505050565b61081a82826124a5565b600082815260976020526040902061083290826124c9565b505050565b61084182826124de565b60008281526097602052604090206108329082612524565b6108857f9f2df0fed2c77648de5860a4cc508cd0818c85b8b8a1ab4ceeef8d981c8956a66104f86122d5565b6108a15760405162461bcd60e51b81526004016106c29061491d565b805182516020840151606085015160408087015160a088015191518896957fbcc7c928b2374fb01d418b9d80abdcb2a7b57d11f9eb2ca1c4f44a66ec7648fd956108f095919490939192614c47565b60405180910390a160005b81811015610ab857600084828151811061092557634e487b7160e01b600052603260045260246000fd5b602090810291909101810151805160009081526101c8835260409081902082518082559383015160018201558183015160028201819055606084015160039092018054608086015160a087015160c088015160e089015173ffffffffffffffffffffffffffffffffffffffff199094166001600160a01b038816177fffffffffffffffff00000000ffffffffffffffffffffffffffffffffffffffff16600160a01b63ffffffff94851602177fffffffff00000000ffffffffffffffffffffffffffffffffffffffffffffffff16600160c01b93831693909302929092177fffff0000ffffffffffffffffffffffffffffffffffffffffffffffffffffffff16600160e01b61ffff93841602177dffffffffffffffffffffffffffffffffffffffffffffffffffffffffffff16600160f01b929093169190910291909117909155895193519496507ffa98e43961ed7bc677e844029bc13a14e4d8e08fe99ef420e8fa6fc96e8e18c595610a9d959094939190614c79565b60405180910390a15080610ab081614f5b565b9150506108fb565b50815160009081526101c76020908152604091829020845181558185015160018201559184015160028301556060840151600383018054608087015160a088015160c089015160e08a015173ffffffffffffffffffffffffffffffffffffffff199485166001600160a01b03978816177fffffffffffffffff00000000ffffffffffffffffffffffffffffffffffffffff16600160a01b63ffffffff9586168102919091177fffffffff00000000ffffffffffffffffffffffffffffffffffffffffffffffff16600160c01b959094168502939093177fffff0000ffffffffffffffffffffffffffffffffffffffffffffffffffffffff16600160e01b61ffff93841602177dffffffffffffffffffffffffffffffffffffffffffffffffffffffffffff16600160f01b91831691909102179094556101008901516004880180546101208c01516101408d01516101608e01519290971693909816929092177fffffffffffffffffffff0000ffffffffffffffffffffffffffffffffffffffff16968616909202959095177fffffffffffffffff0000ffffffffffffffffffffffffffffffffffffffffffff16600160b01b938516939093029290921777ffffffffffffffffffffffffffffffffffffffffffffffff1667ffffffffffffffff90941602929092179091556101808501516005840180547fffffffffffffffffffffffffffffffffffffffffffffffffffffffffffff000016919092161790556101a08401518051859392610cf4926006850192910190613808565b50505050505050565b6101c6546001600160a01b03165b90565b610d1b60006104f86122d5565b610d375760405162461bcd60e51b81526004016106c290614b36565b610d3f612539565b565b6101c96020526000908152604090205481565b60608151835114610d775760405162461bcd60e51b81526004016106c290614a1f565b6000835167ffffffffffffffff811115610da157634e487b7160e01b600052604160045260246000fd5b604051908082528060200260200182016040528015610dca578160200160208202803683370190505b50905060005b8451811015610e6c57610e31858281518110610dfc57634e487b7160e01b600052603260045260246000fd5b6020026020010151858381518110610e2457634e487b7160e01b600052603260045260246000fd5b602002602001015161069a565b828281518110610e5157634e487b7160e01b600052603260045260246000fd5b6020908102919091010152610e6581614f5b565b9050610dd0565b509392505050565b6040517fe6b9d987000000000000000000000000000000000000000000000000000000008152600090309063e6b9d98790610eb3908590600401614329565b602060405180830381600087803b158015610ecd57600080fd5b505af1158015610ee1573d6000803e3d6000fd5b505050506040513d601f19601f82011682018060405250810190610f059190614096565b6040517f55a02c2d00000000000000000000000000000000000000000000000000000000815290915030906355a02c2d90610f44908490600401614329565b600060405180830381600087803b158015610f5e57600080fd5b505af1158015610f72573d6000803e3d6000fd5b505050505050565b60008181526101c960209081526040808320548084526101c7835281842082516101c0810184528154815260018201548186015260028201548185015260038201546001600160a01b03808216606084015263ffffffff600160a01b80840482166080860152600160c01b80850490921660a086015261ffff600160e01b8504811660c0870152600160f01b909404841660e0860152600486015492831661010086015282048316610120850152600160b01b8204831661014085015267ffffffffffffffff910416610160830152600583015416610180820152600682018054855181880281018801909652808652939695919492936101a0860193928301828280156110a757602002820191906000526020600020905b815481526020019060010190808311611093575b505050919092525050506101a0810151518151919250906110da5760405162461bcd60e51b81526004016106c2906147f5565b60008481526101cb602052604090205460ff1660011461110c5760405162461bcd60e51b81526004016106c2906148e6565b611118338560016125a8565b60005b82610180015161ffff1681101561080957600083610180015161ffff1684608001518560a0015161114c9190614eb4565b611157906001614e16565b6111619190614e71565b63ffffffff169050600061117d6111788484614e9d565b6126bb565b90506000805b85811015611379576000876101a0015182815181106111b257634e487b7160e01b600052603260045260246000fd5b60209081029190910181015160008181526101c8835260409081902081516101008101835281548152600182015494810194909452600281015491840191909152600301546001600160a01b038116606084015263ffffffff600160a01b8204811660808501819052600160c01b830490911660a0850181905261ffff600160e01b8404811660c0870152600160f01b90930490921660e085015291935061125a9190614eb4565b61126a9063ffffffff1685614dfe565b9350838511611364576000816080015163ffffffff16826040015161128f9190614dfe565b60008481526101c8602052604090206003018054919250600160a01b90910463ffffffff169060146112c083614f76565b91906101000a81548163ffffffff021916908363ffffffff160217905550507f1dd69ba1529ee26c893974d206b7b8a51903ee28643880696d4f4809ed621e3483338360405161131293929190614bf0565b60405180910390a160008181526101cb60209081526040808320805460ff191660021790556101ca82528083208690558051918201905290815261135c903390839060019061270e565b505050611379565b5050808061137190614f5b565b915050611183565b50505050808061138890614f5b565b91505061111b565b61012d5460ff1690565b6113a26122d5565b6001600160a01b0316836001600160a01b031614806113c857506113c8836106216122d5565b6113e45760405162461bcd60e51b81526004016106c2906145b6565b6108328383836127ff565b6101cb6020526000908152604090205460ff1681565b6101ca6020526000908152604090205481565b600054610100900460ff1680611431575060005460ff16155b61144d5760405162461bcd60e51b81526004016106c29061473b565b600054610100900460ff16158015611478576000805460ff1961ff0019909116610100171660011790555b61148286866129b3565b6101c48490556101c58390556101c6805473ffffffffffffffffffffffffffffffffffffffff19166001600160a01b0384161790558015610f72576000805461ff0019169055505050505050565b6114dd60006104f86122d5565b6114f95760405162461bcd60e51b81526004016106c290614889565b610d3f612a73565b60008281526097602052604081206115199083612acf565b9392505050565b60009182526065602090815260408084206001600160a01b0393909316845291905290205460ff1690565b600081565b816001600160a01b03166115626122d5565b6001600160a01b031614156115895760405162461bcd60e51b81526004016106c2906149c2565b8060ca60006115966122d5565b6001600160a01b03908116825260208083019390935260409182016000908120918716808252919093529120805460ff1916921515929092179091556115da6122d5565b6001600160a01b03167f17307eab39ab6107e8899845ad3d59bd9653f200f220920489ca2b5937696c3183604051611612919061431e565b60405180910390a35050565b6101c7602052600090815260409020805460018201546002830154600384015460048501546005909501549394929391926001600160a01b0380831693600160a01b80850463ffffffff90811695600160c01b80820490921695600160e01b820461ffff90811696600160f01b909304811695928216948204811693600160b01b8304821693920467ffffffffffffffff1691168d565b60008281526101cb602052604081205481908190819081908190819088908a9060ff166001141561188d5760008181526101c9602090815260408083205483526101c7825280832081516101c0810183528154815260018201548185015260028201548184015260038201546001600160a01b03808216606084015263ffffffff600160a01b80840482166080860152600160c01b80850490921660a086015261ffff600160e01b8504811660c0870152600160f01b909404841660e0860152600486015492831661010086015282048316610120850152600160b01b8204831661014085015267ffffffffffffffff910416610160830152600583015416610180820152600682018054845181870281018701909552808552919492936101a086019390929083018282801561180b57602002820191906000526020600020905b8154815260200190600101908083116117f7575b505050505081525050905080606001518161010001516101c660009054906101000a90046001600160a01b031661184a868560e0015161ffff16612adb565b61185d8786610140015161ffff16612adb565b61186a886101c454612adb565b611877896101c554612adb565b9950995099509950995099509950505050611c2a565b60006101c860006101ca6000858152602001908152602001600020548152602001908152602001600020604051806101000160405290816000820154815260200160018201548152602001600282015481526020016003820160009054906101000a90046001600160a01b03166001600160a01b03166001600160a01b031681526020016003820160149054906101000a900463ffffffff1663ffffffff1663ffffffff1681526020016003820160189054906101000a900463ffffffff1663ffffffff1663ffffffff16815260200160038201601c9054906101000a900461ffff1661ffff1661ffff16815260200160038201601e9054906101000a900461ffff1661ffff1661ffff1681525050905060006101c7600083602001518152602001908152602001600020604051806101c00160405290816000820154815260200160018201548152602001600282015481526020016003820160009054906101000a90046001600160a01b03166001600160a01b03166001600160a01b031681526020016003820160149054906101000a900463ffffffff1663ffffffff1663ffffffff1681526020016003820160189054906101000a900463ffffffff1663ffffffff1663ffffffff16815260200160038201601c9054906101000a900461ffff1661ffff1661ffff16815260200160038201601e9054906101000a900461ffff1661ffff1661ffff1681526020016004820160009054906101000a90046001600160a01b03166001600160a01b03166001600160a01b031681526020016004820160149054906101000a900461ffff1661ffff1661ffff1681526020016004820160169054906101000a900461ffff1661ffff1661ffff1681526020016004820160189054906101000a900467ffffffffffffffff1667ffffffffffffffff1667ffffffffffffffff1681526020016005820160009054906101000a900461ffff1661ffff1661ffff16815260200160068201805480602002602001604051908101604052809291908181526020018280548015611bad57602002820191906000526020600020905b815481526020019060010190808311611b99575b5050505050815250509050806060015182606001516101c660009054906101000a90046001600160a01b0316611beb878660c0015161ffff16612adb565b611bfd888760e0015161ffff16612adb565b611c0a896101c454612adb565b611c178a6101c554612adb565b9a509a509a509a509a509a509a50505050505b92959891949750929550565b600081815260976020526040812061070190612b7f565b7f9f2df0fed2c77648de5860a4cc508cd0818c85b8b8a1ab4ceeef8d981c8956a681565b6108418282612b8a565b60008181526101c76020908152604080832081516101c0810183528154815260018201548185015260028201548184015260038201546001600160a01b03808216606084015263ffffffff600160a01b80840482166080860152600160c01b80850490921660a086015261ffff600160e01b8504811660c0870152600160f01b909404841660e0860152600486015492831661010086015282048316610120850152600160b01b8204831661014085015267ffffffffffffffff910416610160830152600583015416610180820152600682018054845181870281018701909552808552869592946101a086019390929190830182828015611d9c57602002820191906000526020600020905b815481526020019060010190808311611d88575b50505050508152505090506000816000015111611dcb5760405162461bcd60e51b81526004016106c2906147f5565b8060400151341015611def5760405162461bcd60e51b81526004016106c290614954565b80610160015167ffffffffffffffff16421015611e1e5760405162461bcd60e51b81526004016106c29061498b565b8060a0015163ffffffff16816080015163ffffffff161115611e525760405162461bcd60e51b81526004016106c29061464a565b6000611e66348360c0015161ffff16612adb565b90506000611e7d3484610120015161ffff16612adb565b9050600081611e8c8434614e9d565b611e969190614e9d565b90506000846080015163ffffffff168560200151611eb49190614dfe565b60008181526101c9602090815260408083208b90556101cb8252808320805460ff191660019081179091558b84526101c790925290912060030180549293509091601490611f1190849063ffffffff600160a01b90910416614e16565b92506101000a81548163ffffffff021916908363ffffffff1602179055507f6cdfe1ee3b71ebe30d1ff469b66a065b40e19e61efc4d35b895c87f3b9ce828c8733838860800151604051611f689493929190614c0f565b60405180910390a16101c6546040517f7532b65a0a99528e5e77bc96184e45edcd58ef6ecfc1402135e9c954df4817c991611fb7916000918591879133916001600160a01b0390911690614332565b60405180910390a17f7532b65a0a99528e5e77bc96184e45edcd58ef6ecfc1402135e9c954df4817c960018286338960600151604051611ffb959493929190614332565b60405180910390a17f7532b65a0a99528e5e77bc96184e45edcd58ef6ecfc1402135e9c954df4817c96002828533896101000151604051612040959493929190614332565b60405180910390a1612064338260016040518060200160405280600081525061270e565b84606001516001600160a01b03166108fc859081150290604051600060405180830381858888f193505050501580156120a1573d6000803e3d6000fd5b508461010001516001600160a01b03166108fc849081150290604051600060405180830381858888f193505050501580156120e0573d6000803e3d6000fd5b506101c6546040516001600160a01b039091169083156108fc029084906000818181858888f1935050505015801561211c573d6000803e3d6000fd5b509695505050505050565b6001600160a01b03918216600090815260ca6020908152604080832093909416825291909152205460ff1690565b6101c8602052600090815260409020805460018201546002830154600390930154919290916001600160a01b0381169063ffffffff600160a01b8204811691600160c01b81049091169061ffff600160e01b8204811691600160f01b90041688565b6121bf6122d5565b6001600160a01b0316856001600160a01b031614806121e557506121e5856106216122d5565b6122015760405162461bcd60e51b81526004016106c2906145b6565b6108098585858585612ba9565b6122166122d5565b6001600160a01b0316836001600160a01b0316148061223c575061223c836106216122d5565b6122585760405162461bcd60e51b81526004016106c2906145b6565b6108328383836125a8565b60006001600160e01b031982167fd9b67a260000000000000000000000000000000000000000000000000000000014806122c657506001600160e01b031982167f0e89341c00000000000000000000000000000000000000000000000000000000145b80610701575061070182612cd8565b3390565b81518351146122fa5760405162461bcd60e51b81526004016106c290614a7c565b6001600160a01b0384166123205760405162461bcd60e51b81526004016106c290614681565b600061232a6122d5565b905061233a818787878787612d16565b60005b845181101561243f57600085828151811061236857634e487b7160e01b600052603260045260246000fd5b60200260200101519050600085838151811061239457634e487b7160e01b600052603260045260246000fd5b602090810291909101810151600084815260c9835260408082206001600160a01b038e1683529093529190912054909150818110156123e55760405162461bcd60e51b81526004016106c29061482c565b600083815260c9602090815260408083206001600160a01b038e8116855292528083208585039055908b16825281208054849290612424908490614dfe565b925050819055505050508061243890614f5b565b905061233d565b50846001600160a01b0316866001600160a01b0316826001600160a01b03167f4a39dc06d4c0dbc64b70af90fd698a233a518aa5d07e595d983b8c0526c8f7fb878760405161248f9291906142f0565b60405180910390a4610f72818787878787612d24565b6124ae8261079d565b6124bf816124ba6122d5565b612e64565b6108328383612ec8565b6000611519836001600160a01b038416612f4f565b6124e66122d5565b6001600160a01b0316816001600160a01b0316146125165760405162461bcd60e51b81526004016106c290614b93565b6125208282612f99565b5050565b6000611519836001600160a01b03841661301e565b612541611390565b61255d5760405162461bcd60e51b81526004016106c290614468565b61012d805460ff191690557f5db9ee0a495bf2e6ff9c91a7834c1ba4fdd244a5e8aa4e537bd38aeae4b073aa6125916122d5565b60405161259e91906141f3565b60405180910390a1565b6001600160a01b0383166125ce5760405162461bcd60e51b81526004016106c290614798565b60006125d86122d5565b9050612608818560006125ea8761313b565b6125f38761313b565b60405180602001604052806000815250612d16565b600083815260c9602090815260408083206001600160a01b03881684529091529020548281101561264b5760405162461bcd60e51b81526004016106c2906144fc565b600084815260c9602090815260408083206001600160a01b03808a16808652919093528184208786039055905190918516907fc3d58168c5ae7397731d063d5bbf3d657854427343f4c083240f7aacaa2d0f62906126ac9089908990614c39565b60405180910390a45050505050565b6101c38054600091826126cd83614f5b565b91905055508142336101c3546040516020016126eb939291906141b8565b6040516020818303038152906040528051906020012060001c6107019190614f9a565b6001600160a01b0384166127345760405162461bcd60e51b81526004016106c290614ad9565b600061273e6122d5565b905061275f816000876127508861313b565b6127598861313b565b87612d16565b600084815260c9602090815260408083206001600160a01b038916845290915281208054859290612791908490614dfe565b92505081905550846001600160a01b031660006001600160a01b0316826001600160a01b03167fc3d58168c5ae7397731d063d5bbf3d657854427343f4c083240f7aacaa2d0f6287876040516127e8929190614c39565b60405180910390a461080981600087878787613194565b6001600160a01b0383166128255760405162461bcd60e51b81526004016106c290614798565b80518251146128465760405162461bcd60e51b81526004016106c290614a7c565b60006128506122d5565b905061287081856000868660405180602001604052806000815250612d16565b60005b835181101561295457600084828151811061289e57634e487b7160e01b600052603260045260246000fd5b6020026020010151905060008483815181106128ca57634e487b7160e01b600052603260045260246000fd5b602090810291909101810151600084815260c9835260408082206001600160a01b038c16835290935291909120549091508181101561291b5760405162461bcd60e51b81526004016106c2906144fc565b600092835260c9602090815260408085206001600160a01b038b168652909152909220910390558061294c81614f5b565b915050612873565b5060006001600160a01b0316846001600160a01b0316826001600160a01b03167f4a39dc06d4c0dbc64b70af90fd698a233a518aa5d07e595d983b8c0526c8f7fb86866040516129a59291906142f0565b60405180910390a450505050565b600054610100900460ff16806129cc575060005460ff16155b6129e85760405162461bcd60e51b81526004016106c29061473b565b600054610100900460ff16158015612a13576000805460ff1961ff0019909116610100171660011790555b612a1b613297565b612a23613297565b612a2b613297565b612a33613297565b612a3c8361330c565b612a44613297565b612a4c61338a565b612a54613297565b612a5d82613409565b8015610832576000805461ff0019169055505050565b612a7b611390565b15612a985760405162461bcd60e51b81526004016106c290614613565b61012d805460ff191660011790557f62e78cea01bee320cd4e420270b5ea74000d11b0c9f74754ebdbfc544b05a2586125916122d5565b600061151983836134a5565b600061271081612aeb8286614e3e565b90506000612af98387614f9a565b90506000612b078487614e3e565b90506000612b158588614f9a565b905084612b228285614e52565b612b2c9190614e3e565b612b368385614e52565b612b408387614e52565b87612b4b8789614e52565b612b559190614e52565b612b5f9190614dfe565b612b699190614dfe565b612b739190614dfe565b98975050505050505050565b6000610701826134dd565b612b938261079d565b612b9f816124ba6122d5565b6108328383612f99565b6001600160a01b038416612bcf5760405162461bcd60e51b81526004016106c290614681565b6000612bd96122d5565b9050612bea8187876127508861313b565b600084815260c9602090815260408083206001600160a01b038a16845290915290205483811015612c2d5760405162461bcd60e51b81526004016106c29061482c565b600085815260c9602090815260408083206001600160a01b038b8116855292528083208785039055908816825281208054869290612c6c908490614dfe565b92505081905550856001600160a01b0316876001600160a01b0316836001600160a01b03167fc3d58168c5ae7397731d063d5bbf3d657854427343f4c083240f7aacaa2d0f628888604051612cc2929190614c39565b60405180910390a4610cf4828888888888613194565b60006001600160e01b031982167f5a05180f0000000000000000000000000000000000000000000000000000000014806107015750610701826134e1565b610f7286868686868661351f565b612d36846001600160a01b0316613552565b15610f72576040517fbc197c810000000000000000000000000000000000000000000000000000000081526001600160a01b0385169063bc197c8190612d889089908990889088908890600401614248565b602060405180830381600087803b158015612da257600080fd5b505af1925050508015612dd2575060408051601f3d908101601f19168201909252612dcf91810190613e9d565b60015b612e1b57612dde614ff6565b80612de95750612e03565b8060405162461bcd60e51b81526004016106c29190614366565b60405162461bcd60e51b81526004016106c290614379565b6001600160e01b031981167fbc197c810000000000000000000000000000000000000000000000000000000014610cf45760405162461bcd60e51b81526004016106c29061440b565b612e6e8282611520565b61252057612e86816001600160a01b03166014613558565b612e91836020613558565b604051602001612ea2929190614137565b60408051601f198184030181529082905262461bcd60e51b82526106c291600401614366565b612ed28282611520565b6125205760008281526065602090815260408083206001600160a01b03851684529091529020805460ff19166001179055612f0b6122d5565b6001600160a01b0316816001600160a01b0316837f2f8788117e7eff1d82e926ec794901d17c78024a50270940304540a733656f0d60405160405180910390a45050565b6000612f5b8383613797565b612f91575081546001818101845560008481526020808220909301849055845484825282860190935260409020919091556106f0565b5060006106f0565b612fa38282611520565b156125205760008281526065602090815260408083206001600160a01b03851684529091529020805460ff19169055612fda6122d5565b6001600160a01b0316816001600160a01b0316837ff6391f5c32d9c69d2a47ea670b442974b53935d1edc7fd64eb21e047a839171b60405160405180910390a45050565b60008181526001830160205260408120548015613131576000613042600183614e9d565b855490915060009061305690600190614e9d565b90508181146130d757600086600001828154811061308457634e487b7160e01b600052603260045260246000fd5b90600052602060002001549050808760000184815481106130b557634e487b7160e01b600052603260045260246000fd5b6000918252602080832090910192909255918252600188019052604090208390555b85548690806130f657634e487b7160e01b600052603160045260246000fd5b6001900381819060005260206000200160009055905585600101600086815260200190815260200160002060009055600193505050506106f0565b60009150506106f0565b6040805160018082528183019092526060916000919060208083019080368337019050509050828160008151811061318357634e487b7160e01b600052603260045260246000fd5b602090810291909101015292915050565b6131a6846001600160a01b0316613552565b15610f72576040517ff23a6e610000000000000000000000000000000000000000000000000000000081526001600160a01b0385169063f23a6e61906131f8908990899088908890889060040161429a565b602060405180830381600087803b15801561321257600080fd5b505af1925050508015613242575060408051601f3d908101601f1916820190925261323f91810190613e9d565b60015b61324e57612dde614ff6565b6001600160e01b031981167ff23a6e610000000000000000000000000000000000000000000000000000000014610cf45760405162461bcd60e51b81526004016106c29061440b565b600054610100900460ff16806132b0575060005460ff16155b6132cc5760405162461bcd60e51b81526004016106c29061473b565b600054610100900460ff161580156132f7576000805460ff1961ff0019909116610100171660011790555b8015613309576000805461ff00191690555b50565b600054610100900460ff1680613325575060005460ff16155b6133415760405162461bcd60e51b81526004016106c29061473b565b600054610100900460ff1615801561336c576000805460ff1961ff0019909116610100171660011790555b613375826137af565b8015612520576000805461ff00191690555050565b600054610100900460ff16806133a3575060005460ff16155b6133bf5760405162461bcd60e51b81526004016106c29061473b565b600054610100900460ff161580156133ea576000805460ff1961ff0019909116610100171660011790555b61012d805460ff191690558015613309576000805461ff001916905550565b600054610100900460ff1680613422575060005460ff16155b61343e5760405162461bcd60e51b81526004016106c29061473b565b600054610100900460ff16158015613469576000805460ff1961ff0019909116610100171660011790555b61347b60006134766122d5565b6137c2565b6133757f9f2df0fed2c77648de5860a4cc508cd0818c85b8b8a1ab4ceeef8d981c8956a6836137c2565b60008260000182815481106134ca57634e487b7160e01b600052603260045260246000fd5b9060005260206000200154905092915050565b5490565b60006001600160e01b031982167f7965db0b0000000000000000000000000000000000000000000000000000000014806107015750610701826137cc565b61352d868686868686610f72565b613535611390565b15610f725760405162461bcd60e51b81526004016106c290614559565b3b151590565b60606000613567836002614e52565b613572906002614dfe565b67ffffffffffffffff81111561359857634e487b7160e01b600052604160045260246000fd5b6040519080825280601f01601f1916602001820160405280156135c2576020820181803683370190505b5090507f30000000000000000000000000000000000000000000000000000000000000008160008151811061360757634e487b7160e01b600052603260045260246000fd5b60200101907effffffffffffffffffffffffffffffffffffffffffffffffffffffffffffff1916908160001a9053507f78000000000000000000000000000000000000000000000000000000000000008160018151811061367857634e487b7160e01b600052603260045260246000fd5b60200101907effffffffffffffffffffffffffffffffffffffffffffffffffffffffffffff1916908160001a90535060006136b4846002614e52565b6136bf906001614dfe565b90505b6001811115613778577f303132333435363738396162636465660000000000000000000000000000000085600f166010811061370e57634e487b7160e01b600052603260045260246000fd5b1a60f81b82828151811061373257634e487b7160e01b600052603260045260246000fd5b60200101907effffffffffffffffffffffffffffffffffffffffffffffffffffffffffffff1916908160001a90535060049490941c9361377181614f09565b90506136c2565b5083156115195760405162461bcd60e51b81526004016106c2906143d6565b60009081526001919091016020526040902054151590565b80516125209060cb906020840190613853565b61081a82826137fe565b6001600160e01b031981167f01ffc9a70000000000000000000000000000000000000000000000000000000014919050565b6125208282612ec8565b828054828255906000526020600020908101928215613843579160200282015b82811115613843578251825591602001919060010190613828565b5061384f9291506138c6565b5090565b82805461385f90614f20565b90600052602060002090601f0160209004810192826138815760008555613843565b82601f1061389a57805160ff1916838001178555613843565b828001600101855582156138435791820182811115613843578251825591602001919060010190613828565b5b8082111561384f57600081556001016138c7565b600067ffffffffffffffff8311156138f5576138f5614fda565b6139086020601f19601f86011601614db0565b905082815283838301111561391c57600080fd5b828260208301376000602084830101529392505050565b80356001600160a01b038116811461070457600080fd5b600082601f83011261395a578081fd5b8135602061396f61396a83614dda565b614db0565b828152818101908583016101008086028801850189101561398e578687fd5b865b86811015613a555781838b0312156139a6578788fd5b6040805183810181811067ffffffffffffffff821117156139c9576139c9614fda565b808352508435815287850135888201528185013582820152606091506139f0828601613933565b8282015260809150613a03828601613afb565b8282015260a09150613a16828601613afb565b8282015260c09150613a29828601613ae9565b8282015260e09150613a3c828601613ae9565b9181019190915285529385019391810191600101613990565b509198975050505050505050565b600082601f830112613a73578081fd5b81356020613a8361396a83614dda565b8281528181019085830183850287018401881015613a9f578586fd5b855b85811015613abd57813584529284019290840190600101613aa1565b5090979650505050505050565b600082601f830112613ada578081fd5b611519838335602085016138db565b803561ffff8116811461070457600080fd5b803563ffffffff8116811461070457600080fd5b803567ffffffffffffffff8116811461070457600080fd5b60008060408385031215613b39578182fd5b613b4283613933565b9150613b5060208401613933565b90509250929050565b600080600080600060a08688031215613b70578081fd5b613b7986613933565b9450613b8760208701613933565b9350604086013567ffffffffffffffff80821115613ba3578283fd5b613baf89838a01613a63565b94506060880135915080821115613bc4578283fd5b613bd089838a01613a63565b93506080880135915080821115613be5578283fd5b50613bf288828901613aca565b9150509295509295909350565b600080600080600060a08688031215613c16578283fd5b613c1f86613933565b9450613c2d60208701613933565b93506040860135925060608601359150608086013567ffffffffffffffff811115613c56578182fd5b613bf288828901613aca565b600080600060608486031215613c76578081fd5b613c7f84613933565b9250602084013567ffffffffffffffff80821115613c9b578283fd5b613ca787838801613a63565b93506040860135915080821115613cbc578283fd5b50613cc986828701613a63565b9150509250925092565b60008060408385031215613ce5578182fd5b613cee83613933565b915060208301358015158114613d02578182fd5b809150509250929050565b60008060408385031215613d1f578182fd5b613d2883613933565b946020939093013593505050565b600080600060608486031215613d4a578081fd5b613d5384613933565b95602085013595506040909401359392505050565b60008060408385031215613d7a578182fd5b823567ffffffffffffffff80821115613d91578384fd5b818501915085601f830112613da4578384fd5b81356020613db461396a83614dda565b82815281810190858301838502870184018b1015613dd0578889fd5b8896505b84871015613df957613de581613933565b835260019690960195918301918301613dd4565b5096505086013592505080821115613e0f578283fd5b50613e1c85828601613a63565b9150509250929050565b600060208284031215613e37578081fd5b5035919050565b60008060408385031215613e50578182fd5b82359150613b5060208401613933565b60008060408385031215613e72578182fd5b50508035926020909101359150565b600060208284031215613e92578081fd5b8135611519816150b9565b600060208284031215613eae578081fd5b8151611519816150b9565b600080600080600060a08688031215613ed0578283fd5b853567ffffffffffffffff811115613ee6578384fd5b8601601f81018813613ef6578384fd5b613f05888235602084016138db565b955050613f1460208701613933565b93506040860135925060608601359150613f3060808701613933565b90509295509295909350565b60008060408385031215613f4e578182fd5b823567ffffffffffffffff80821115613f65578384fd5b81850191506101c0808388031215613f7b578485fd5b613f8481614db0565b9050823581526020830135602082015260408301356040820152613faa60608401613933565b6060820152613fbb60808401613afb565b6080820152613fcc60a08401613afb565b60a0820152613fdd60c08401613ae9565b60c0820152613fee60e08401613ae9565b60e0820152610100614001818501613933565b90820152610120614013848201613ae9565b90820152610140614025848201613ae9565b90820152610160614037848201613b0f565b90820152610180614049848201613ae9565b908201526101a08381013583811115614060578687fd5b61406c89828701613a63565b828401525050809450506020850135915080821115614089578283fd5b50613e1c8582860161394a565b6000602082840312156140a7578081fd5b5051919050565b6001600160a01b03169052565b6000815180845260208085019450808401835b838110156140ea578151875295820195908201906001016140ce565b509495945050505050565b6000815180845261410d816020860160208601614ed9565b601f01601f19169290920160200192915050565b61ffff169052565b67ffffffffffffffff169052565b60007f416363657373436f6e74726f6c3a206163636f756e74200000000000000000008252835161416f816017850160208801614ed9565b7f206973206d697373696e6720726f6c652000000000000000000000000000000060179184019182015283516141ac816028840160208801614ed9565b01602801949350505050565b92835260609190911b7fffffffffffffffffffffffffffffffffffffffff000000000000000000000000166020830152603482015260540190565b6001600160a01b0391909116815260200190565b6001600160a01b03978816815295871660208701529390951660408501526060840191909152608083015260a082019290925260c081019190915260e00190565b60006001600160a01b03808816835280871660208401525060a0604083015261427460a08301866140bb565b828103606084015261428681866140bb565b90508281036080840152612b7381856140f5565b60006001600160a01b03808816835280871660208401525084604083015283606083015260a060808301526142d260a08301846140f5565b979650505050505050565b60006020825261151960208301846140bb565b60006040825261430360408301856140bb565b828103602084015261431581856140bb565b95945050505050565b901515815260200190565b90815260200190565b60ff959095168552602085019390935260408401919091526001600160a01b03908116606084015216608082015260a00190565b60006020825261151960208301846140f5565b60208082526034908201527f455243313135353a207472616e7366657220746f206e6f6e204552433131353560408201527f526563656976657220696d706c656d656e746572000000000000000000000000606082015260800190565b6020808252818101527f537472696e67733a20686578206c656e67746820696e73756666696369656e74604082015260600190565b60208082526028908201527f455243313135353a204552433131353552656365697665722072656a6563746560408201527f6420746f6b656e73000000000000000000000000000000000000000000000000606082015260800190565b60208082526014908201527f5061757361626c653a206e6f7420706175736564000000000000000000000000604082015260600190565b6020808252602b908201527f455243313135353a2062616c616e636520717565727920666f7220746865207a60408201527f65726f2061646472657373000000000000000000000000000000000000000000606082015260800190565b60208082526024908201527f455243313135353a206275726e20616d6f756e7420657863656564732062616c60408201527f616e636500000000000000000000000000000000000000000000000000000000606082015260800190565b6020808252602c908201527f455243313135355061757361626c653a20746f6b656e207472616e736665722060408201527f7768696c65207061757365640000000000000000000000000000000000000000606082015260800190565b60208082526029908201527f455243313135353a2063616c6c6572206973206e6f74206f776e6572206e6f7260408201527f20617070726f7665640000000000000000000000000000000000000000000000606082015260800190565b60208082526010908201527f5061757361626c653a2070617573656400000000000000000000000000000000604082015260600190565b60208082526006908201527f537570706c790000000000000000000000000000000000000000000000000000604082015260600190565b60208082526025908201527f455243313135353a207472616e7366657220746f20746865207a65726f20616460408201527f6472657373000000000000000000000000000000000000000000000000000000606082015260800190565b60208082526032908201527f455243313135353a207472616e736665722063616c6c6572206973206e6f742060408201527f6f776e6572206e6f7220617070726f7665640000000000000000000000000000606082015260800190565b6020808252602e908201527f496e697469616c697a61626c653a20636f6e747261637420697320616c72656160408201527f647920696e697469616c697a6564000000000000000000000000000000000000606082015260800190565b60208082526023908201527f455243313135353a206275726e2066726f6d20746865207a65726f206164647260408201527f6573730000000000000000000000000000000000000000000000000000000000606082015260800190565b60208082526006908201527f4578697374730000000000000000000000000000000000000000000000000000604082015260600190565b6020808252602a908201527f455243313135353a20696e73756666696369656e742062616c616e636520666f60408201527f72207472616e7366657200000000000000000000000000000000000000000000606082015260800190565b6020808252602b908201527f45524331313535546f6b656e3a206d75737420686176652061646d696e20726f60408201527f6c6520746f207061757365000000000000000000000000000000000000000000606082015260800190565b60208082526006908201527f497320626f780000000000000000000000000000000000000000000000000000604082015260600190565b6020808252600c908201527f4e6f742061206d696e7465720000000000000000000000000000000000000000604082015260600190565b60208082526005908201527f5072696365000000000000000000000000000000000000000000000000000000604082015260600190565b60208082526007908201527f52656c6561736500000000000000000000000000000000000000000000000000604082015260600190565b60208082526029908201527f455243313135353a2073657474696e6720617070726f76616c2073746174757360408201527f20666f722073656c660000000000000000000000000000000000000000000000606082015260800190565b60208082526029908201527f455243313135353a206163636f756e747320616e6420696473206c656e67746860408201527f206d69736d617463680000000000000000000000000000000000000000000000606082015260800190565b60208082526028908201527f455243313135353a2069647320616e6420616d6f756e7473206c656e6774682060408201527f6d69736d61746368000000000000000000000000000000000000000000000000606082015260800190565b60208082526021908201527f455243313135353a206d696e7420746f20746865207a65726f2061646472657360408201527f7300000000000000000000000000000000000000000000000000000000000000606082015260800190565b6020808252602d908201527f45524331313535546f6b656e3a206d75737420686176652061646d696e20726f60408201527f6c6520746f20756e706175736500000000000000000000000000000000000000606082015260800190565b6020808252602f908201527f416363657373436f6e74726f6c3a2063616e206f6e6c792072656e6f756e636560408201527f20726f6c657320666f722073656c660000000000000000000000000000000000606082015260800190565b9283526001600160a01b03919091166020830152604082015260600190565b9384526001600160a01b03929092166020840152604083015263ffffffff16606082015260800190565b918252602082015260400190565b94855260208501939093526001600160a01b03919091166040840152606083015263ffffffff16608082015260a00190565b948552602085019390935260408401919091526001600160a01b0316606083015263ffffffff16608082015260a00190565b978852602088019690965260408701949094526001600160a01b0392909216606086015263ffffffff90811660808601521660a084015261ffff90811660c08401521660e08201526101000190565b8d8152602081018d9052604081018c90526001600160a01b038b16606082015263ffffffff8a81166080830152891660a082015261ffff881660c08201526101a08101614d4a60e0830189614121565b614d586101008301886140ae565b614d66610120830187614121565b614d74610140830186614121565b614d82610160830185614129565b614d90610180830184614121565b9e9d5050505050505050505050505050565b60ff91909116815260200190565b60405181810167ffffffffffffffff81118282101715614dd257614dd2614fda565b604052919050565b600067ffffffffffffffff821115614df457614df4614fda565b5060209081020190565b60008219821115614e1157614e11614fae565b500190565b600063ffffffff808316818516808303821115614e3557614e35614fae565b01949350505050565b600082614e4d57614e4d614fc4565b500490565b6000816000190483118215151615614e6c57614e6c614fae565b500290565b600063ffffffff80831681851681830481118215151615614e9457614e94614fae565b02949350505050565b600082821015614eaf57614eaf614fae565b500390565b600063ffffffff83811690831681811015614ed157614ed1614fae565b039392505050565b60005b83811015614ef4578181015183820152602001614edc565b83811115614f03576000848401525b50505050565b600081614f1857614f18614fae565b506000190190565b600281046001821680614f3457607f821691505b60208210811415614f5557634e487b7160e01b600052602260045260246000fd5b50919050565b6000600019821415614f6f57614f6f614fae565b5060010190565b600063ffffffff80831681811415614f9057614f90614fae565b6001019392505050565b600082614fa957614fa9614fc4565b500690565b634e487b7160e01b600052601160045260246000fd5b634e487b7160e01b600052601260045260246000fd5b634e487b7160e01b600052604160045260246000fd5b60e01c90565b600060443d101561500657610d0b565b600481823e6308c379a061501a8251614ff0565b1461502457610d0b565b6040517ffffffffffffffffffffffffffffffffffffffffffffffffffffffffffffffffc3d016004823e80513d67ffffffffffffffff81602484011181841117156150725750505050610d0b565b8284019250825191508082111561508c5750505050610d0b565b503d830160208284010111156150a457505050610d0b565b601f01601f1916810160200160405291505090565b6001600160e01b03198116811461330957600080fdfea2646970667358221220f90eb00cae61f0f9838aa3d5d6ad6318c07a53ad385ba4c5d3e8d491514aa37864736f6c63430008000033",
  "immutableReferences": {},
  "source": "// SPDX-License-Identifier: MIT\npragma solidity ^0.8.0;\n\nimport \"../node_modules/@openzeppelin/contracts-upgradeable/proxy/utils/Initializable.sol\";\nimport \"./ERC1155Token.sol\";\n\nstruct LootBox {\n  uint256 index;\n  uint256 fromId;\n  uint256 price;\n  address creator;\n  uint32 count;\n  uint32 supply;\n  uint16 creatorBuyingRoyalty;\n  uint16 creatorTradingRoyalty;\n  address artist;\n  uint16 artistBuyingRoyalty;\n  uint16 artistTradingRoyalty;\n  uint64 release;\n  uint16 dropRate;\n  uint256[] lootBoxItemsIndex;\n}\n\nstruct LootBoxItem {\n  uint256 index;\n  uint256 lootBoxIndex;\n  uint256 fromId;\n  address artist;\n  uint32 count;\n  uint32 supply;\n  uint16 creatorTradingRoyalty;\n  uint16 artistTradingRoyalty;\n}\n\ncontract Topx is Initializable, ERC1155Token {\n\n  uint256 private randomNounce;\n  uint256 private platformTradingRoyalty;\n  uint256 private platformTradingUpfrontRoyalty;\n  address private treasury;\n\n  mapping(uint256 => LootBox) public lootBoxes;\n  mapping(uint256 => LootBoxItem) public lootBoxItems;\n  mapping(uint256 => uint256) public tokenIdToLootBoxIndex;\n  mapping(uint256 => uint256) public tokenIdToLootBoxItemsIndex;\n  mapping(uint256 => uint8) public tokenIdType;\n\n  function initialize(string memory _uri, address _minter, uint256 _platformTradingRoyalty, uint256 _platformTradingUpfrontRoyalty, address _treasury) external initializer {\n    __ERC1155Token_init(_uri, _minter);\n    platformTradingRoyalty = _platformTradingRoyalty;\n    platformTradingUpfrontRoyalty = _platformTradingUpfrontRoyalty;\n    treasury = _treasury;\n  }\n\n  event EthTopxTransfer(uint8 _action, uint256 _tokenId, uint256 _amount, address _from, address _to);\n\n  event addLootBox(uint256 _packid, uint256 _from, address _creator, uint256 _price, uint256 _supply);\n  event addLootBoxItem(uint256 _itemid, uint256 _packid, uint256 _from, address _artist, uint256 _supply);\n\n  function addLootBoxes(LootBox memory _lootBox, LootBoxItem[] memory _lootBoxItems) external {\n    require(hasRole(MINTER_ROLE, _msgSender()), \"Not a minter\");\n    LootBox memory lootBox = _lootBox;\n    uint256 lootBoxItemsCount = _lootBoxItems.length;\n    emit addLootBox(lootBox.index, lootBox.fromId, lootBox.creator, lootBox.price, lootBox.supply);\n    for (uint256 i=0; i<lootBoxItemsCount; i++) {\n      LootBoxItem memory lootBoxItem = _lootBoxItems[i];\n      lootBoxItems[lootBoxItem.index] = lootBoxItem;\n      emit addLootBoxItem(lootBoxItem.index, lootBox.index, lootBoxItem.fromId, lootBoxItem.artist, lootBoxItem.supply);\n    }\n    lootBoxes[lootBox.index] = lootBox;\n  }\n\n  event mintLootBox(uint256 _id, address _account, uint256 _tokenId, uint256 _count);\n\n  function buyLootBox(uint256 lootBoxIndex) external payable returns (uint256) {\n    LootBox memory lootBox = lootBoxes[lootBoxIndex];\n    require(lootBox.index > 0, \"Exists\");\n    require(msg.value >= lootBox.price, \"Price\");\n    require(block.timestamp >= lootBox.release, \"Release\");\n    require(lootBox.count <= lootBox.supply, \"Supply\");\n    uint256 toCreatorRoyalty = mulDiv(msg.value, lootBox.creatorBuyingRoyalty);\n    uint256 toArtistRoyalty = mulDiv(msg.value, lootBox.artistBuyingRoyalty);\n    uint256 toSeller = msg.value - toCreatorRoyalty - toArtistRoyalty;\n    uint256 tokenId = lootBox.fromId + lootBox.count;\n    tokenIdToLootBoxIndex[tokenId] = lootBoxIndex;\n    tokenIdType[tokenId] = 1;\n    lootBoxes[lootBoxIndex].count += 1;\n    emit mintLootBox(lootBoxIndex, msg.sender, tokenId, lootBox.count);\n    emit EthTopxTransfer(0, tokenId, toSeller, msg.sender, treasury);\n    emit EthTopxTransfer(1, tokenId, toCreatorRoyalty, msg.sender, lootBox.creator);\n    emit EthTopxTransfer(2, tokenId, toArtistRoyalty, msg.sender, lootBox.artist);\n    _mint(msg.sender, tokenId, 1, \"\");\n    payable(lootBox.creator).transfer(toCreatorRoyalty);\n    payable(lootBox.artist).transfer(toArtistRoyalty);\n    payable(treasury).transfer(toSeller);\n    return tokenId;\n  }\n\n  event mintItem(uint256 _id, address _account, uint256 _tokenId);\n\n  function openLootBox(uint256 tokenId) external {\n    uint256 lootBoxIndex = tokenIdToLootBoxIndex[tokenId];\n    LootBox memory lootBox = lootBoxes[lootBoxIndex];\n    uint256 lootBoxItemIndexLength = lootBox.lootBoxItemsIndex.length;\n    require(lootBox.index > 0, \"Exists\");\n    require(tokenIdType[tokenId] == 1, \"Is box\");\n    _burn(msg.sender, tokenId, 1);\n    for (uint256 i=0; i<lootBox.dropRate; i++) {\n      uint256 availables = (lootBox.supply - lootBox.count + 1) * lootBox.dropRate;\n      uint256 rand = random(availables - i);\n      uint256 counter = 0;\n      for (uint256 j=0; j<lootBoxItemIndexLength; j++) {\n        uint256 currentItem = lootBox.lootBoxItemsIndex[j];\n        LootBoxItem memory lootBoxItem = lootBoxItems[currentItem];\n        counter = counter + (lootBoxItem.supply - lootBoxItem.count);\n        if (rand <= counter) {\n          uint256 mintedTokenId = lootBoxItem.fromId + lootBoxItem.count;\n          lootBoxItems[currentItem].count++;\n          emit mintItem(currentItem, msg.sender, mintedTokenId);\n          tokenIdType[mintedTokenId] = 2;\n          tokenIdToLootBoxItemsIndex[mintedTokenId] = currentItem;\n          _mint(msg.sender, mintedTokenId, 1, \"\");\n          break;\n        }\n      }\n    }\n  }\n\n  function buyAndOpenLootBox(uint256 lootBoxIndex) external payable {\n    uint256 tokenId = this.buyLootBox(lootBoxIndex);\n    this.openLootBox(tokenId);\n  }\n\n  function getRoyaltyInfo(uint256 _tokenId, uint256 _amount) external view returns (\n    address, // creator\n    address, // artist\n    address, // treasury\n    uint256, // creator royalty\n    uint256, // artist royalty\n    uint256, // platform royalty\n    uint256  // platform upfront royalty\n  ) {\n    uint256 amount = _amount;\n    uint256 tokenId = _tokenId;\n    if (tokenIdType[tokenId] == 1) {\n      LootBox memory lb = lootBoxes[tokenIdToLootBoxIndex[tokenId]];\n      return (\n        lb.creator,\n        lb.artist,\n        treasury,\n        mulDiv(amount, lb.creatorTradingRoyalty),\n        mulDiv(amount, lb.artistTradingRoyalty),\n        mulDiv(amount, platformTradingRoyalty),\n        mulDiv(amount, platformTradingUpfrontRoyalty)\n      );\n    } else {\n      LootBoxItem memory lbi = lootBoxItems[tokenIdToLootBoxItemsIndex[tokenId]];\n      LootBox memory lb = lootBoxes[lbi.lootBoxIndex];\n      return (\n        lb.creator,\n        lbi.artist,\n        treasury,\n        mulDiv(amount, lbi.creatorTradingRoyalty),\n        mulDiv(amount, lbi.artistTradingRoyalty),\n        mulDiv(amount, platformTradingRoyalty),\n        mulDiv(amount, platformTradingUpfrontRoyalty)\n      );\n    }\n  }\n\n  function mulDiv(uint256 x, uint256 y) private pure returns (uint256) {\n    uint256 z = 10000;\n    uint256 a = x / z;\n    uint256 b = x % z;\n    uint256 c = y / z;\n    uint256 d = y % z;\n    return a * b * z + a * d + b * c + b * d / z;\n  }\n\n  function random(uint256 size) private returns (uint256) {\n    randomNounce++;\n    return uint256(keccak256(abi.encodePacked(block.timestamp, msg.sender, randomNounce))) % size;\n  }\n\n  function updatePlatformTradingRoyalty(uint256 _newRoyalty) private {\n    require(hasRole(DEFAULT_ADMIN_ROLE, msg.sender), \"Not an admin\");\n    platformTradingRoyalty = _newRoyalty;\n  }\n\n  function updatePlatformTradingUpfrontRoyalty(uint256 _newRoyalty) private {\n    require(hasRole(DEFAULT_ADMIN_ROLE, msg.sender), \"Not an admin\");\n    platformTradingUpfrontRoyalty = _newRoyalty;\n  }\n\n  function getTreasury() external view returns (address) {\n    return treasury;\n  }\n}",
  "sourcePath": "/Users/jernejpregelj/dev/markeljc/trill/smartcontracts/contracts/Topx.sol",
  "compiler": {
    "name": "solc",
    "version": "0.8.0+commit.c7dfd78e.Emscripten.clang"
  },
  "schemaVersion": "3.4.1",
  "updatedAt": "2021-09-13T13:55:58.601Z",
  "networkType": "ethereum",
  "devdoc": {
    "kind": "dev",
    "methods": {
      "balanceOf(address,uint256)": {
        "details": "See {IERC1155-balanceOf}. Requirements: - `account` cannot be the zero address."
      },
      "balanceOfBatch(address[],uint256[])": {
        "details": "See {IERC1155-balanceOfBatch}. Requirements: - `accounts` and `ids` must have the same length."
      },
      "getRoleAdmin(bytes32)": {
        "details": "Returns the admin role that controls `role`. See {grantRole} and {revokeRole}. To change a role's admin, use {_setRoleAdmin}."
      },
      "getRoleMember(bytes32,uint256)": {
        "details": "Returns one of the accounts that have `role`. `index` must be a value between 0 and {getRoleMemberCount}, non-inclusive. Role bearers are not sorted in any particular way, and their ordering may change at any point. WARNING: When using {getRoleMember} and {getRoleMemberCount}, make sure you perform all queries on the same block. See the following https://forum.openzeppelin.com/t/iterating-over-elements-on-enumerableset-in-openzeppelin-contracts/2296[forum post] for more information."
      },
      "getRoleMemberCount(bytes32)": {
        "details": "Returns the number of accounts that have `role`. Can be used together with {getRoleMember} to enumerate all bearers of a role."
      },
      "grantRole(bytes32,address)": {
        "details": "Overload {grantRole} to track enumerable memberships"
      },
      "hasRole(bytes32,address)": {
        "details": "Returns `true` if `account` has been granted `role`."
      },
      "isApprovedForAll(address,address)": {
        "details": "See {IERC1155-isApprovedForAll}."
      },
      "paused()": {
        "details": "Returns true if the contract is paused, and false otherwise."
      },
      "renounceRole(bytes32,address)": {
        "details": "Overload {renounceRole} to track enumerable memberships"
      },
      "revokeRole(bytes32,address)": {
        "details": "Overload {revokeRole} to track enumerable memberships"
      },
      "safeBatchTransferFrom(address,address,uint256[],uint256[],bytes)": {
        "details": "See {IERC1155-safeBatchTransferFrom}."
      },
      "safeTransferFrom(address,address,uint256,uint256,bytes)": {
        "details": "See {IERC1155-safeTransferFrom}."
      },
      "setApprovalForAll(address,bool)": {
        "details": "See {IERC1155-setApprovalForAll}."
      },
      "uri(uint256)": {
        "details": "See {IERC1155MetadataURI-uri}. This implementation returns the same URI for *all* token types. It relies on the token type ID substitution mechanism https://eips.ethereum.org/EIPS/eip-1155#metadata[defined in the EIP]. Clients calling this function must replace the `\\{id\\}` substring with the actual token type ID."
      }
    },
    "version": 1
  },
  "userdoc": {
    "kind": "user",
    "methods": {},
    "version": 1
  }
}